:100000000C942A030C9471030C9471030C947103E7
:100010000C9471030C9471030C9471030C94710390
:100020000C9471030C9471030C94012B0C94D52B3C
:100030000C949F220C9471030C9471030C94710323
:100040000C9471030C9471030C9471030C94710360
:100050000C9471030C94F6220C9471030C947103AC
:100060000C9471030C9471030C9471030C94710340
:100070000C9471030C9471030C9471030C94710330
:100080000C9471030C9471030C9471030C94710320
:100090000C9471030C9471030C9471030C94710310
:1000A0000C9471030C9471030C94710329001E00CD
:1000B0001F0020002100220023002400250026002C
:1000C00027002D002E002A004A002B0014001A00E1
:1000D0000800150017001C0018000C001200130087
:1000E0002F00300031004B00820004001600070092
:1000F00009000A000B000D000E000F003300340051
:10010000000028004E00E1001D001B000600190041
:100110000500110010003600370038000000E5002F
:1001200052004D00E000E300E2000000000000008B
:100130002C0000000000E6000151000050005100BA
:100140004F003A003B003C003D003E003F004000B5
:1001500041004200430044004500010001004C0002
:100160000100BF5CC05CBB5CBC5CBE5CBD5CC15CD8
:100170000100010001000100010001004600010032
:100180000100010001000100010001000100010067
:100190000100010001000000010001000100010058
:1001A0000100010001000100010001000100010047
:1001B0000100000001000100010001000100010038
:1001C000000000000000010000000000010001002C
:1001D000000001000100010000000000000000001C
:1001E0002A2B280000000000000000000000000092
:1001F00000000029000000002C1E3420212224349D
:100200002627252E362D3738271E1F20212223246E
:1002100025263333362E37381F0405060708090A0A
:100220000B0C0D0E0F101112131415161718191AA6
:100230001B1C1D2F3130232D350405060708090A24
:100240000B0C0D0E0F101112131415161718191A86
:100250001B1C1D2F3130354C000000000000000039
:100260000000000000000000000000007E0F00D42D
:10027000FFFFFFC70000007832190A00047F3F1F0C
:10028000643214643214783C1E1E140A052223259D
:100290002628292A2C2D2F3032333536383A3B3D4B
:1002A0003E4042434547494A4C4E50515355575999
:1002B0005A5C5E6062646668696B6D6F71737577B6
:1002C000797B7D7F81838587898A8C8E90929496B5
:1002D000989A9C9E9FA1A3A5A7A8AAACAEAFB1B3C4
:1002E000B4B6B8B9BBBCBEBFC1C2C3C5C6C7C9CA14
:1002F000CBCCCDCED0D1D2D2D3D4D5D6D7D7D8D9D6
:10030000D9DADADBDBDBDCDCDCDCDCDDDDDDDDDC33
:10031000DCDCDCDCDBDBDBDADAD9D9D8D7D7D6D545
:10032000D4D3D2D2D1D0CECDCCCBCAC9C7C6C5C307
:10033000C2C1BFBEBCBBB9B8B6B4B3B1AFAEACAA54
:10034000A8A7A5A3A19F9E9C9A98969492908E8C04
:100350008A89878583817F7D7B79777573716F6DDE
:100360006B6968666462605E5C5A595755535150B8
:100370004E4C4A4947454342403E3D3B3A3836356C
:100380003332302F2D2C2A292826252322FFAA7F1D
:1003900055400001010101010101010102020202B7
:1003A000020202020203030303030303030404041F
:1003B00004040404050505050506060606060707E8
:1003C00007070708080808090909090A0A0A0B0BA0
:1003D0000B0C0C0C0D0D0D0E0E0E0F0F0F1010113F
:1003E00011111212131314141515161617171818C5
:1003F00019191A1A1B1B1C1D1D1E1E1F202021222D
:1004000022232424252626272829292A2B2C2D2D72
:100410002E2F30313232333435363738393A3B3C8F
:100420003D3E3F404142434445464748494A4C4D82
:100430004E4F50515354555658595A5B5D5E5F614B
:100440006264656668696B6C6D6F707273757778DE
:100450007A7B7D7E8082838587888A8C8E8F91933C
:100460009596989A9C9EA0A2A3A5A7A9ABADAFB163
:10047000B3B5B7BABCBEC0C2C4C6C9CBCDCFD1D448
:10048000D6D8DBDDDFE2E4E7E9EBEEF0F3F5F8FAEE
:10049000FDFF04033000000012036B0065007900CB
:1004A00062006F00610072006400000016037100BA
:1004B0006D006B006200750069006C0064006500EF
:1004C000720000000403090409025B00030100A09C
:1004D000FA090400000103010100092111010001D2
:1004E0002240000705810308000A090401000203F5
:1004F00000000009211101000122220007058203EA
:100500002000010705030320000109040200010384
:1005100000000009211101000122BC00070584032D
:1005200020000A1201100100000008EDFE606001C9
:1005300000010203010660FF0961A10109621500C3
:1005400026FF009520750881020963150026FF002B
:10055000952075089102C005010902A101850209D3
:1005600001A1000509190129051500250195057549
:1005700001810295017503810105010930093115D9
:1005800081257F95027508810609381581257F959B
:100590000175088106050C0A38021581257F950131
:1005A00075088106C0C005010980A10185031901F4
:1005B0002AB700150126B700950175108100C00506
:1005C0000C0901A101850419012AA002150126A028
:1005D00002950175108100C005010906A10185057C
:1005E000050719E029E71500250195087501810225
:1005F0000507190029EF1500250195F07501810205
:1006000005081901290595057501910295017503E4
:100610009101C005010906A101050719E029E715A7
:100620000025019508750181029501750881010574
:1006300007190029FF150026FF009506750881009F
:1006400005081901290595057501910295017503A4
:100650009101C00011241FBECFEFDAE0DEBFCDBF95
:1006600004B603FE27C08091750390917603A09194
:100670007703B09178038730904BA740B04BD1F40B
:1006800010927503109276031092770310927803FC
:1006900014BE84B7877F84BF0FB6F894A895809165
:1006A0006000886180936000109260000FBEE0E0FF
:1006B000F8E3099511E0A0E0B1E0E8E7FEE502C04B
:1006C00005900D92AC3DB107D9F723E0ACEDB1E058
:1006D00001C01D92A537B207E1F70E94C6270C940E
:1006E000EB2E0C9400000895089581E0089508957C
:1006F00081E008950C94750308950C947C031F9376
:10070000CF93DF9300D000D00F92CDB7DEB74983EF
:100710005A836B833091500289819A8131111DC0B7
:100720006623B9F02223A9F00E94A01F182F682F7A
:1007300089819A810E944C1F69817A81812F0F9053
:100740000F900F900F900F90DF91CF911F910C940D
:10075000E0120E94781F182FEFCF0E94A01F69811E
:100760007A81EDCFFC01262F408151816281738116
:1007700084810C947F03CF93DF93EC0160E00E94AF
:10078000B203BE01DF91CF910C947D03FF920F93D2
:100790001F93CF93DF93E82FF0E0E852FE4FF490E1
:1007A000C82FC695C695C695D0E0FE01E859FD4F05
:1007B0000491877010E0082E02C0159507950A94E1
:1007C000E2F701701127C85ADD4FFE01C491D0E055
:1007D00002C0D595C7958A95E2F7C170DD2701154E
:1007E000110519F081EE0E943C17209719F086EE52
:1007F0000E943C178F2D0E942418CD2B19F086EEF5
:100800000E94CE17012B41F081EEDF91CF911F9115
:100810000F91FF900C94CE17DF91CF911F910F9104
:10082000FF900895EF92FF920F931F93CF93DF9362
:10083000EC01162F0AE08881882309F454C0813026
:1008400009F04EC08981813099F47E0122E0E20EE8
:10085000F11C8A810E942418E7012196812F815082
:1008600050F3EFE9FFE03197F1F700C00000F7CF58
:10087000823041F47E0182E0E80EF11C8A810E9400
:100880003C17EACF833041F47E01E2E0EE0EF11C2A
:100890008A810E94CE17E0CF843011F02196DDCFFF
:1008A0002A81229690E080E0AE014F5F5F4F205397
:1008B000330B2A30310548F0019778F2EFE9FFE079
:1008C0003197F1F700C00000F7CF089FB001099FF2
:1008D000700D1124C901860F971F2981EA01E4CF09
:1008E0000E94C603BACFDF91CF911F910F91FF9065
:1008F000EF90089560E00C9412048F929F92AF9253
:10090000BF92CF92DF92EF92FF920F931F936B01F2
:100910007C0181E090E0A0E0B0E04C015D0104C00A
:10092000880C991CAA1CBB1C4A95D2F7B501A401DE
:100930004C015D0104C0880C991CAA1CBB1C2A95A3
:10094000D2F7482959296A297B2904C0880F991FA1
:10095000AA1FBB1F0A95D2F78A019B010C211D21FA
:100960002E213F21041715072607370789F48C2904
:100970009D29AE29BF29BC01CD011F910F91FF9088
:10098000EF90DF90CF90BF90AF909F908F900895A1
:1009900080959095A095B0958C219D21AE21BF2189
:1009A000EACF0F93382F262F6091BB027091BC02C3
:1009B0008091BD029091BE02042F432F0E947D04BE
:1009C0000F910C948A1E0E9440230E94EA208111FC
:1009D00002C00E9487210C9450070C9452070C947B
:1009E000770381E008950C94F104CF93C82F0E94FF
:1009F000EF048C2FCF910C94F30408950E94B31A46
:100A00000E94FD042FEF84E39CE021508040904041
:100A1000E1F700C000000C941A230F931F93CF93AB
:100A2000DF93EC0161E00E94B2038C01BE010E94E1
:100A3000B510882389F1BE01C8010E947A0388237A
:100A400059F1BE01C8010E943614882329F1BE0164
:100A5000C8010E9488148823F9F0BE01C8010E94D1
:100A6000AB158823C9F0BE01C8010E94C10F8823BD
:100A700099F08A81882339F001158CE5180751F027
:100A80000E3D1C4579F0CE01DF91CF911F910F9162
:100A90000C9478030E94FE0480E0DF91CF911F91B7
:100AA0000F9108950E948721F7CF90E080E008958C
:100AB0000895FC01EE0FFF1FE858FD4F85919491BA
:100AC0000895CF93DF930E94E0120E947606EC0116
:100AD000811520E5920708F042C0811530E49307A4
:100AE00008F0BDC0883E910528F5803E910508F0CC
:100AF0009DC0883A910588F4853A910508F08FC029
:100B00008130910509F492C0009709F48FC00497D1
:100B100008F08CC0D0E0C0E089C08F3B910508F49C
:100B200089C0805C9109C03CD105A0F30E945905A1
:100B3000EC017CC08115904250F4C11581E0D807CA
:100B400008F074C0C03FD10528F3D0656FC0C1154F
:100B500090E3D90708F079C0CE019F70E7CF8115E7
:100B600025E5920758F5811534E5930708F0A6C0EE
:100B7000811542E5940750F4C11581E5D80708F4C2
:100B800071C0DC2FCC27C16FD06A50C0982F9695CA
:100B900096959E0123703327C115D34508F07FC079
:100BA000C1E0D0E002C0CC0FDD1F2A95E2F720E2C1
:100BB000929FC0011124C82BD92B6FC0C11589E5A4
:100BC000D807A8F4C11598E5D90708F07CC0C1156D
:100BD00026E5D20708F09ECF8C2F0E940D07C82F64
:100BE000D0E0DC2FCC27CC27DF71D0621FC0C1152D
:100BF0003AE5D30708F46CC0CE01905681159042B7
:100C000008F088CF8D2F8F710E940D0790E0982FEC
:100C1000882788279F719C012C2BE901E6CFC55AB4
:100C2000D0E0C65ADE4FC881D0E0D064CE01DF915B
:100C3000CF910895C85AD0E0CC0FDD1FC45DDE4FC0
:100C40000990D881C02DD464F1CFCE019927D3FF6C
:100C500003C0EC01D86CEACFEC01D06CE7CFDF70B9
:100C6000D06AE4CFCE01E4E096958795EA95E1F766
:100C700083702C2F26952695237090E2299F900152
:100C80001124382B8C2F8370C1E0D0E002C0CC0F30
:100C9000DD1F8A95E2F7C22BD32BDC68C7CFC1E0FA
:100CA000D0E002C0CC0FDD1F2A95E2F730E2939F1F
:100CB000C0011124C82BD92BDA68B8CFD82FCC2784
:100CC000C46FD06AB3CFDC2FCC27C06FD06AAECF51
:100CD0008C2F8F700E940D0734E0D695C7953A95FA
:100CE000E1F7CF709C2FEC01D069A0CF823891053D
:100CF000B1F1B0F48133910509F475C048F489323B
:100D0000910509F469C08A32910509F473C0089508
:100D10008533910509F459C08933910501F108958E
:100D2000833E9105A9F138F4803E9105F9F0823EA9
:100D3000910549F10895863E9105A9F1873E9105F7
:100D4000C9F1843E910519F52091670321FF1FC069
:100D50008091660384FD14C087EE90E00895209191
:100D600066032370A1F080EE90E008952091660361
:100D700020FD47C03091670330FF09C024FF44C005
:100D800090E080E004C02091660322FDF7CF089533
:100D90002091660322FD3BC03091670330FDE3CF15
:100DA00024FFF5CFEDCF2091660323FFF0CF24FD84
:100DB000E7CFD2CF2091660323FD2CC0309167038B
:100DC00031FFEECF84EE90E008952091660325FF79
:100DD000DECF89E290E008952091660325FFD7CF0A
:100DE00085E390E008952091660326FFD0CF8AE244
:100DF00090E008952091660326FFC9CF81E390E03B
:100E0000089589E390E0089583EE90E0089582EEDE
:100E100090E0089586EE90E008959091660392FF29
:100E200006C0282F28712830F9F4877F846093FF4B
:100E300006C0282F28712831F1F4877E8461209123
:100E4000670320FF06C0382F38713830D9F4877F08
:100E5000816021FF06C0282F28712831D1F4877EB8
:100E6000816194FD877E0895282F24712430F9F63E
:100E70008B7F8860DCCF282F2471243101F78B7E93
:100E80008861DDCF382F3171313019F78E7F88605E
:100E9000E0CF282F2171213121F78E7E8861E1CFAB
:100EA0000C9473030C947403E82FF0E0EE0FFF1F13
:100EB000ED5DFC4F808191810895089580EA8A95C7
:100EC000F1F70895CF93DF93ACE6B1E041E751E04D
:100ED000C1E0D0E08D91E82FE295EF70F0E061A1E4
:100EE0008F709E0101C0220F8A95EAF7922F90958C
:100EF000962391A382A1822B82A34A175B0751F705
:100F0000ADE5B1E061E070E08D91E82FE295EF7022
:100F1000F0E041A18F709B0101C0220F8A95EAF792
:100F2000922F9095942391A382A1822B82A381E09A
:100F3000AC36B80749F710921A03109219031092B1
:100F400024031092230310921C0310921B0310928F
:100F500026031092250310921E0310921D03109277
:100F60002803109227031092200310921F0310925F
:100F70002A03109229031092220310922103109247
:100F80002C0310922B0385E00E945108DF91CF9132
:100F90000C94E3048F929F92AF92BF92CF92DF9214
:100FA000EF92FF920F931F93CF93DF938CE6E82E7F
:100FB00081E0F82E09E113E0912CAA24A394B12C2E
:100FC000F70181917F01C82FC295CF70D0E099A120
:100FD0008F70650101C0CC0C8A95EAF7892F8C29A6
:100FE00089A38AA18C2C809488218AA30E945E0701
:100FF000EDE5F1E050E040E030E020E06191A62F27
:10100000A295AF70B0E090968C9190E06F7002C0A6
:10101000959587956A95E2F780FD3EC0C501042E3F
:1010200002C0880F991F0A94E2F7282B392B4F5FD3
:101030005F4F4F30510511F789A1882289A28AA1FB
:10104000C82ACAA2F801808191812817390739F18D
:101050003183208381E0982A0E5F1F4FF1E7EF165E
:10106000F1E0FF0609F0ACCF292D45E063E273E023
:1010700089E193E00E9452080E94ED04892DDF91DE
:10108000CF911F910F91FF90EF90DF90CF90BF9085
:10109000AF909F908F90089590E080E0C6CF80E061
:1010A000DACF0895FF920F931F93CF93DF93F82E1B
:1010B000092F162FD72FC42F222349F081E08093C8
:1010C000DE010E94CF229093DD018093DC018091AC
:1010D000DE018823A1F08091DC019091DD010E9466
:1010E000E722069760F0EF2DF02FA12FBD2F90E0A3
:1010F00080E0D0E08C179D0744F01092DE01DF9174
:10110000CF911F910F91FF900895219131912D93CF
:101110003D930196EFCFEF92FF920F931F93CF93E2
:10112000DF93EB01E82FD11110C0442321F0F0E050
:10113000EE56FC4FE4916E2F7E2F8E2FDF91CF91D4
:101140001F910F91FF90EF9008950D2F10E0282F21
:1011500030E0442329F02E563C4FF901249130E031
:10116000F6E0CF9FC0011124EFEFF0E0BF010E9435
:10117000932DAB018C2F90E0880F991FA5E5A49FBC
:10118000B001A59F700D1124861B970B982F990F06
:10119000980FBF01601B710B629FD001639FB00D60
:1011A000729FB00D11248B2F9D9FB0011124672FCA
:1011B0007727EF01C61BD70BBE01629FE001639F3B
:1011C000D00D729FD00D11247F01E91AF108E09E25
:1011D000B001E19E700DF09E700D1124672F7727EE
:1011E000E61BF70BE29F8001E39F100DF29F100DAD
:1011F0001124E12F722F4230510599F048F4411526
:10120000510569F04130510581F0EB2F8D2F07C05A
:101210004430510569F080F046305105B1F76E2F2A
:101220008DCFE22F7B2F812FFACFE22F7D2FF7CFAB
:10123000EB2F822F712FF3CF7B2F822FED2FEFCF4C
:1012400041E00C948B080895CF93DF93762FE9014A
:10125000682F842F0E942009798368838A83DF9115
:10126000CF91089580912D03982F9E7F29F481704E
:10127000826080932D0308958635E8F3817084653C
:10128000F8CF88E090E00C948C2ECF92DF92EF9212
:10129000FF926B017C010E943209B701A60188E030
:1012A00090E0FF90EF90DF90CF900C94AA2E609189
:1012B0002D0370912E0380912F03909130030C9495
:1012C0004509EDE2F3E083E0808311828FEF8283B2
:1012D0008383148260817181828193810C9445099A
:1012E00080912D0380FF02C08695089580E00895C7
:1012F00090913103933018F49F5F909331038823CA
:1013000051F060912D0370912E0380912F039091E5
:1013100030030C944509089581E00C94780990916C
:101320003103992319F0915090933103882351F0A0
:1013300060912D0370912E0380912F0390913003C3
:101340000C944509089581E00C948F098091310334
:10135000089580933103662351F060912D037091BD
:101360002E0380912F03909130030C94450908952A
:1013700060E00C94A90980912E03089580912F03B9
:10138000089580913003089570E00C9431106091BD
:10139000080180912D0380FF0AC08091070123E09E
:1013A000829FC00111248E5C9C4F0C94C4098091D3
:1013B000090190910A0123E0829FF0011124EE5C63
:1013C000FC4F891750F71182108212828F5F33967B
:1013D000F8CF90912D0390FF14C0909109012091B6
:1013E0000A0133E0939FF0011124EE5CFC4F921749
:1013F00010F00C94C7098183608342839F5F33960A
:10140000F6CF0895CF93DF9300D00F92CDB7DEB71C
:1014100090912D0390FF0AC09E012F5F3F4F0E94C5
:1014200024094B8169818A810E94E9090F900F90FC
:101430000F90DF91CF910895CF93DF93EC01EC8172
:10144000F0E0E357FD4F4491EDE2F3E062818181EA
:101450000E94020A8C818F5F8C83DF91CF91089567
:10146000CF93DF93EC01EDE2F3E0438162818C8165
:101470000E94020A8C818F5F8C83DF91CF91089547
:101480000F931F93CF93DF9300D00F92CDB7DEB7AA
:101490008C018091DF0181110AC09E012F5F3F4FB7
:1014A0004FEF6FEF0E9424098A818093DF01F801DA
:1014B0006481613069F08091DF0140E0662361F072
:1014C00040E0623011F44091DF0180E060E004C050
:1014D0006091DF0140E080E00E94E909F801848129
:1014E00090E0019663E070E00E94A72D84830F9046
:1014F0000F900F90DF91CF911F910F910895AF92B0
:10150000BF92CF92DF92EF92FF920F931F93CF93F0
:10151000DF9300D00F92CDB7DEB7182FF62E042F31
:10152000E22E90912D0390FF29C0E92FE695AE2F72
:10153000B0E0AF58BE4F8C91809339029E7F9230BD
:1015400059F59E012F5F3F4F812F0E9424094B8147
:1015500069818A810E94E90910932E03F0922F037A
:1015600000933003EE2051F060912D0370912E0313
:1015700080912F03909130030E9445090F900F90A6
:101580000F90DF91CF911F910F91FF90EF90DF901F
:10159000CF90BF90AF900895823019F4009130033E
:1015A000DBCF863019F410912E03D6CF8930D9F3D2
:1015B000893191F6E9518E2F8170D82EE695F0E0B1
:1015C000E357FC4FA590B490C12CBB2460910B0154
:1015D000C61618F00E94C709BFCF2C2D30E0A29E7E
:1015E000C001A39E900DB29E900D112470E00E9448
:1015F000932D812FD11013C0860F40910901420F06
:10160000532F511D9A01220F331F240F351F2E5CBB
:101610003C4F402F6F2D0E942409C394D7CF861BC7
:10162000ECCFEDE2F3E09181282F4381628188E0E5
:10163000890F0C947F0A81E00C94110BEDE2F3E02A
:101640009181282F4381628188EF890F0C947F0A52
:1016500081E00C941E0BEDE2F3E0628128E0620F62
:1016600008F46FEF282F438181810C947F0A81E079
:101670000C942B0BEDE2F3E0628128E0621B08F48E
:1016800060E0282F438181810C947F0A81E00C94D3
:101690003A0BEDE2F3E0438128E0420F08F44FEF0C
:1016A000282F628181810C947F0A81E00C94490B80
:1016B000EDE2F3E0438128E0421B08F440E0282FEC
:1016C000628181810C947F0A81E00C94580B20E0A8
:1016D0000C947F0AEF92FF921F93CF93DF93EC015C
:1016E00010E0EE24EA94F12C60910B01161770F0D3
:1016F0000E94C7099A818C8190FF27C08F5F8C83DD
:10170000DF91CF911F91FF90EF90089520910901F3
:10171000422F410F5527551FCA019A01220F331F2F
:10172000280F391F2E5C3C4F70E0C7010E94A72D87
:10173000962F8C814091300360912F03199F800D6B
:1017400011240E9424091F5FCFCF8150D8CFBF92B0
:10175000CF92DF92EF92FF920F931F93CF93DF937D
:10176000FC0182810FEF80FF01E010E080910B010E
:101770001817C0F00E94C7098091E101013009F0FB
:1017800051C0811102C080910B0181508093E10111
:10179000DF91CF911F910F91FF90EF90DF90CF904D
:1017A000BF900895C0910901C12ED12CCC0DDD2D23
:1017B000D11DCE01880F991FC80FD91FCE5CDC4FF9
:1017C000198218821A8234E0E32EF12CB12C809118
:1017D000E1018B0D813104F18F70082E000C990B03
:1017E000C816D90691F4809130038E9DA0018F9D7B
:1017F000500D112455954795559547959E0160913B
:101800002F0380912E030E942409B00EF1E0EF1AFD
:10181000F108E9F61F5FAACF87FFDFCF90910B0198
:10182000890FDBCF90E0019660910B0170E00E9480
:10183000A72DACCF0F931F93CF93DF938091090116
:1018400090910A0123E0829FF0011124EE5CFC4F8D
:10185000891740F1C0E0D3E060910B01C61740F159
:101860000E94C709209105018091E001820F8093B9
:10187000E00190910601920F90930601191654F41D
:10188000082E000C990B40910B014150550B841709
:1018900095071CF0219520930501DF91CF911F91B1
:1018A0000F9108951182108212828F5F3396D0CFEC
:1018B0000C2F10E070E0C8010E94A72D20910901B3
:1018C000820F482F50E02091E001022E000C330BD4
:1018D00002171307BCF020910601022E000C330BF7
:1018E000201731077CF08D9F900111242E5C3C4F16
:1018F0004091300360912F0380912E030E942409B0
:10190000CF5FAACFFA01EE0FFF1FE40FF51FEE5CC9
:10191000FC4F118210821282F3CF8F929F92AF926E
:10192000BF92CF92DF92EF92FF920F931F93CF93CC
:10193000DF93EC014C81042F10E09801D8010E9444
:10194000F22D9B01AC010E94082E4B015C01E0E2EC
:10195000F0E0E01BF10BA5E5B0E0AC019B010E94BB
:10196000082E6B017C019F01DF010E94EA2D9B0183
:10197000AC010E94132E9B01AC01280D391D4A1D9C
:101980005B1DC701B6010E94BB2DF22E822F90E095
:1019900039E23F1560F143E0249F90011124359511
:1019A0002795122F109500E085E5E82EEF1880911D
:1019B0000B01081758F10E94C7099C8181E0992307
:1019C00019F0903219F48FEF809304018091040193
:1019D000890F8C83DF91CF911F910F91FF90EF9032
:1019E000DF90CF90BF90AF909F908F90089525E5A6
:1019F00030E0B901681B790B9B01220F331F260FC2
:101A0000371F37FFCCCF2F5F3F4FC9CF8E2D01FD42
:101A10008F2D20910901622F600F7727771F9B017F
:101A2000220F331F260F371F2E5C3C4F412F609132
:101A30002F030E9424090F5FBACF0F931F93CF93F8
:101A4000DF93EC0110E000E090910B01901711067C
:101A500009F06CF40E94C7098C8190E001968170B6
:101A600099278C83DF91CF911F910F910895209139
:101A70000901A801420F511D9A01220F331F240FA3
:101A8000351F2E5C3C4F4C8160912F0380912E03BB
:101A900096959017110651F04CF0442349F040916F
:101AA00030030E9424090F5F1F4FCECF4423B9F3A8
:101AB00040E0F7CF8F929F92AF92BF92CF92DF928A
:101AC000EF92FF920F931F93CF93DF93FC01B280AD
:101AD000948081E0848300E015E05BE4A52E8824F7
:101AE0008394EE24EA94F12C7BE4C72ED12C8091D0
:101AF0000B01081770F0DF91CF911F910F91FF90AC
:101B0000EF90DF90CF90BF90AF909F908F900C940C
:101B1000C709C02FD0E01C9FF0011D9FF00D1124BC
:101B2000EE51FE4F91101CC01382128220910901C8
:101B3000CE01820F911D9C01220F331F280F391FE8
:101B40002E5C3C4F1C9FF0011D9FF00D1124EE51A7
:101B5000FE4F4281618180810E9424090F5FC7CFBF
:101B60002381222379F12150238334818A2D821B02
:101B7000311101C0822F1C9FF0011D9FF00D112417
:101B8000EE51FE4F90913003899FC0011124B601A0
:101B90000E94932D6283211104C0332311F014821B
:101BA000A38222E02B1510F21C9FF0011D9FF00D67
:101BB0001124EE51FE4F80912E03808380912F03DC
:101BC0008183B4CF0E94672E823091400CF0AECF5B
:101BD00082E08B1530F50E94672EB7010E94A72D79
:101BE0001C9FF0011D9FF00D1124EE51FE4F8083CC
:101BF00022E02B15C8F40E94672E20912F03269512
:101C0000622F70E00E94A72D280F1C9FF0011D9FDE
:101C1000F00D1124EE51FE4F21831282A3828482A3
:101C200085CF80912E03DCCF20912F03EECFEDE204
:101C3000F3E080818E7F80836081718182819381D6
:101C40000E94450910923A022FEF80E792E021505E
:101C500080409040E1F700C000000C94C709EDE21D
:101C6000F3E080818E7F808310923A022FEF80E72D
:101C700092E0215080409040E1F700C000000C94B9
:101C8000C70960912D03669570E04BE050E08CE051
:101C900091E00E94772E892B19F481E080933A021B
:101CA0000E94CF2290933302809332020895909144
:101CB0002D0390FF35C09170811128C092609093E0
:101CC0002D03662351F060912D0370912E038091B6
:101CD0002F03909130030E94450960912D03669572
:101CE00070E04BE050E08CE091E00E94772E892B71
:101CF000A1F010923A0281E08093350240913003C6
:101D000060912F0380912E030C94670B8B3210F09F
:101D10009465D5CF880F982BD2CF0E94410EEBCF80
:101D20000895682F90912D03969581E0890F8B324D
:101D300008F081E00C94570E81E00C94910E682F0E
:101D400090912D0396958FEF890F09F48AE20C94F8
:101D5000570E81E00C949F0E61E00C94570EEDE25B
:101D6000F3E080818160808386950C94AC0E809135
:101D70002D0380FD0C94170E0C94AF0E60E00C94B4
:101D8000570E8091380281112EC00E94EA208111E5
:101D900004C00E9487210E9461090E94410960934A
:101DA0002D0370932E0380932F03909330036E7F47
:101DB00061F40E9461090E94410960932D037093B0
:101DC0002E0380932F03909330030E9432091092C8
:101DD0003A0280912D0380FF03C086950E94BE0EBB
:101DE00081E0809338020895EDE2F3E08081816024
:101DF000808386950C94BE0E0F931F93CF93DF9331
:101E000080913A02882309F49DC080913902E091C3
:101E10002D03E695E81BE09334028230C9F5F0E02B
:101E2000E757FD4FE491CE2FD0E00CE11AE080910E
:101E30003502882389F0109235020E94CF229E013C
:101E400020953095820F931F909333028093320236
:101E50001092370210923602809132029091330232
:101E60000E94E7228C179D0708F46CC0E0913202B3
:101E7000F0913302CE0FDF1FD0933302C0933202B2
:101E800082E392E0F801DF91CF911F910F910994C5
:101E9000863049F4F0E0EA57FD4FE491CE2FD0E0D0
:101EA00000E31AE0C4CF893051F4E695F0E0ED5735
:101EB000FD4FE491CE2FD0E00AE61BE0B8CF8F3083
:101EC00051F4E695F0E0E058FD4FE491CE2FD0E0DC
:101ED00007EA1BE0ACCF853149F4F0E0E358FD4F51
:101EE000E491CE2FD0E00AE11CE0A1CFC8E2D0E01F
:101EF0000DE81CE0883109F49ACF833239F4EBE71E
:101F0000F2E0C591D49100E41AE091CFC4EFD1E0A2
:101F10000DE11DE0843209F48ACFC0EDD7E003E281
:101F200019E0853209F083CF8E2F63E00E94872D60
:101F3000E92FF0E0E858FD4FE491CE2FD0E00AE51C
:101F40001DE075CFDF91CF911F910F910895FA0198
:101F5000811101C0FB010994CF93DF93C82FD62FC5
:101F60000E9470098C1740F00E9470098D1720F4B0
:101F7000DF91CF910C949C0E8C2FDF91CF910C941C
:101F8000AC0E0F931F93CF938C01FB01C281CC2326
:101F900009F465C00E9435208272F801E25CFC45BC
:101FA000E431F10538F4E351F14D0C94DD2D0E943C
:101FB000B70EC0E08C2FCF911F910F91089549EA81
:101FC0005EE06CE97EE00E94A70FF3CF4CE95EE093
:101FD00069EA7EE0F8CF48E25BE06BE17BE0F3CFBB
:101FE0004BE15BE068E27BE0EECF46E45BE067E379
:101FF0007BE0E9CF47E35BE066E47BE0E4CF44E6E7
:102000005BE065E57BE0DFCF45E55BE064E67BE038
:10201000DACF43EA59E06CE879E0D5CF4CE859E0F3
:1020200063EA79E0D0CF81E00E94AC0EC2CF65E0D8
:1020300082E00E94AC0FBDCF68E086E0FACF6EE090
:1020400089E0F7CF64E18FE0F4CF67E185E1F1CF7C
:1020500088E1EACF62E289E1ECCF83E2E5CFC1E03B
:10206000A9CF279A45B14F7755B15068EFB7F8948B
:102070009B01220F331F260F371F280F391F2817E8
:10208000390741F4EFBF8FE594E00197F1F700C005
:1020900000000895DC016D91CD0178E055B9000094
:1020A00000C067FF45B9660F000000C000C000C057
:1020B00045B900C07A9591F7E2CF82E290E00E94A4
:1020C000842E813289F483E290E00E94842E843051
:1020D00059F484E290E00E94842E91E0813209F06C
:1020E00090E0892F8170089580E0FCCFCF93DF933B
:1020F000D82FCFEF8111C1E26C2F82E290E00E94D5
:10210000982E6FEFD11164E083E290E00E94982E48
:102110006C2F84E290E0DF91CF910C94982E80E0B8
:102120000E9476100C94E420089585E290E00E94CD
:10213000842E682F70E090E080E0089585E290E0C2
:102140000C94982E0E9494100E945D1081110CC076
:1021500060E070E0CB010E949E100E9458120E9425
:10216000441381E00C9476100895CF93FB01C28153
:10217000CC2309F19C0122513F452031310520F546
:1021800082510E945413C0E08C2FCF91089581E0BA
:102190000E94B01E43E062E081E00E94D104F3CFD0
:1021A00081E00E94D11E43E062E081E00E94D10400
:1021B000EBCF82E0F6CF8031FFE59F0789F38131D5
:1021C0009F45B9F3C1E0E0CF8031EFE59E07F9F21A
:1021D00081319F45C9F682E0DBCF2FEFFC012083E0
:1021E0000895CF93DF93EC0188818138A9F028F41A
:1021F000803871F0DF91CF910895823881F0833873
:10220000C9F70E94BB0989830E94BE098A83F2CF65
:102210000E94C1098983EECF0E947009FBCF0E9402
:10222000A609F8CFCF93DF93EC0188818138E1F0E4
:1022300028F4803869F0DF91CF910895823811F148
:102240008338C9F70E94C109482F6A81898108C073
:10225000D9810E94BE09C82F0E94BB094D2F6C2F47
:10226000DF91CF910C94670B89810E94BE0E89810A
:10227000811104C0DF91CF910C942F0EDF91CF918B
:102280000C94F40E8981DF91CF910C94B809EF92F0
:10229000FF920F931F93CF93DF93EC01062FDC0186
:1022A000ED91CD01E150E33108F0BFC0F0E0EF5F08
:1022B000F04D0C94DD2D198289E08A83602FCE01C8
:1022C000DF91CF911F910F91FF90EF900C94BA2660
:1022D0008981823069F0833071F08130D9F40E94B5
:1022E000DB220E94E32D6A837B838C839D83E6CF70
:1022F0000E949510F6CF7E0110E0812F0E945407B6
:10230000F701928383831F5FF2E0EF0EF11C15301B
:10231000A1F7D4CF602FCE010E94ED10CFCF8981DD
:102320008230C1F76A817B818C819D810E94E32D7F
:102330000E949E10C3CF4B816A8189810E942A121C
:102340009827892798279D838C83B8CF2C813D813E
:102350003227232732274B816A8189810E944312C9
:10236000ADCF0E945812AACF0E941211A7CF0E948F
:10237000F110A4CF0E945709A1CF0E94ED128983CA
:102380009DCF0E94EF129827892798279A838983E7
:1023900095CF6B8170E089819A81AE014C5F5F4F70
:1023A0009827892798270E94F21288CF6B8170E0C6
:1023B00089819A81AE014C5F5F4F982789279827C2
:1023C0000E9419137BCF0E94441378CF0E941812E9
:1023D000D6CF6B8170E089819A81AE014C5F5F4FEF
:1023E0009827892798270E94901268CF6B8170E008
:1023F00089819A81AE014C5F5F4F98278927982782
:102400000E94B6125BCF0E948F1058CFCE010E945F
:10241000BA262FEF81EE94E0215080409040E1F702
:1024200000C000000E941A2349CF8FEF888346CF57
:1024300084E0089550E0440F551F9EE1699F400DD0
:10244000511D112496E9899F400D511D1124CA0187
:10245000869608950F931F93CF93DF930E941A12CD
:102460008C010E94842EC82FD0E0DC2FCC27C8011D
:1024700001960E94842E9E01282BC901DF91CF91E5
:102480001F910F9108950F931F93CF93DF93122FF6
:10249000032F0E941A12EC01602F0E94982E612FC8
:1024A000CE010196DF91CF911F910F910C94982E40
:1024B000AF92BF92CF92DF92EF92FF921F93CF9392
:1024C000DF938CEAC82E80E0D82ED0E07601C0E001
:1024D00014C0F50125913491412F6C2F8D2F0E944E
:1024E000431282E0A80EB11C1F5F1F3091F78EE1EE
:1024F000E80EF11CCF5FC53019F0570110E0E9CFAD
:10250000DF5F86E9C80ED11CD43001F7DF91CF918F
:102510001F91FF90EF90DF90CF90BF90AF90089504
:10252000EF92FF920F931F93CF93DF93EC018A01F9
:102530007C01E60EF71ECE018696CE15DF0539F436
:10254000DF91CF911F910F91FF90EF900895C835C3
:1025500022E0D20740F40E94842EF80180830F5FAE
:102560001F4F2196E8CFF8011082F9CFCF92DF926A
:10257000EF92FF920F931F93CF93DF937C016A0139
:102580008C01060F171FEC01CE018696C017D107EC
:1025900049F4DF91CF911F910F91FF90EF90DF9061
:1025A000CF900895C83522E0D20740F4FE01EE191D
:1025B000FF09EC0DFD1D60810E94982E2196E4CF4D
:1025C000462F843038F4753028F46F3018F4672FB4
:1025D0000C942A1290E080E0089580E1089582E84A
:1025E00091E00895EF92FF920F931F93CF93DF93A3
:1025F000EC018A017C01E60EF71ECE0182589D4F48
:10260000CE15DF0539F4DF91CF911F910F91FF9027
:10261000EF900895C23821E0D20740F40E94842E42
:10262000F80180830F5F1F4F2196E7CFF8011082DA
:10263000F9CFCF92DF92EF92FF920F931F93CF9338
:10264000DF937C016A018C01060F171FEC01CE019C
:1026500082589D4FC017D10749F4DF91CF911F9148
:102660000F91FF90EF90DF90CF900895C23821E056
:10267000D20740F4FE01EE19FF09EC0DFD1D60814B
:102680000E94982E2196E3CFCF93DF93CEE7D2E03E
:1026900060E0CE010E94982E2196C11584E0D807F3
:1026A000B9F7DF91CF910895DF92EF92FF920F93E8
:1026B0001F93CF93DF9300D000D0CDB7DEB7F82EB5
:1026C0008FE08F1540F08FEF93E00E94842E0EE78D
:1026D00012E08823C1F00F900F900F900F90DF91C0
:1026E000CF911F910F91FF90EF90DF90089501150A
:1026F00084E0180781F3C8010E94842E811101C073
:10270000FA940F5F1F4FF110F2CF19821A821B82C9
:102710001C82DD24D39478018FEFE81AF80AC801EF
:102720000E94842E89831A828823A9F29FEF980F32
:10273000933078F48A83D9820E5F1F4FC7010E94BD
:10274000842E8B83882339F2CE0101960E947A046D
:10275000E2CF8701F9CFAF92BF92CF92DF92EF9293
:10276000FF920F931F93CF93DF937C015B01C42FE4
:10277000D22FFC0182818823F9F040933D020E9410
:10278000CF2290933C0280933B0280E28C0F8830F2
:1027900008F061C0C77081E001C0880FCA95EAF7F0
:1027A000DF91CF911F910F91FF90EF90DF90CF902D
:1027B000BF90AF900C94371810913D02141340C095
:1027C00080913B0290913C020E94E7226C01B7018C
:1027D000C5010E94291DC816D90690F5C0E2CD0F8B
:1027E0001D17B9F080E2810F883040F4177081E046
:1027F00001C0880F1A95EAF70E943E18C83048F4C5
:1028000081E09D2F977001C0880F9A95EAF70E948A
:102810003718802F0E942418C830E8F4D77081E060
:1028200001C0880FDA95EAF7DF91CF911F910F91E0
:10283000FF90EF90DF90CF90BF90AF900C943E1838
:1028400080E28C0F883038F4C77081E001C0880FB7
:10285000CA95EAF7E9CFDF91CF911F910F91FF90D1
:10286000EF90DF90CF90BF90AF9008950F939C01B1
:10287000CB01233F4CE5340759F1A8F4283DFCE592
:102880003F0701F1293D4CE53407D1F1273D3C4597
:1028900091F406E221EE41EE67ED7CE50E94AB1378
:1028A00080E00F910895253FFCE53F07E9F0B0F087
:1028B000263F3C45F9F0FC018281882339F11092D2
:1028C0003D02EFCF07E225EE45EE68ED7CE5E6CF71
:1028D00006E221EE40EE63EF7CE5E0CF07E225EE75
:1028E00044EE64EF7CE5DACF06E221EE42EE65EFDE
:1028F0007CE5D4CF07E225EE46EE66EF7CE5CECF51
:1029000008E221E045EE69ED7CE5C8CF81E0C9CF62
:10291000CF93DF93EC01FB018281882309F419C175
:10292000C230FCE5DF07C0F1C6319CE5D90730F0C5
:102930009E012A5F3C452930310570F50E94FD203B
:102940009093670380936603C031ECE5DE0709F4DA
:10295000CFC008F05BC0C8308CE5D80709F4B6C01A
:1029600088F5C430ECE5DE0709F4A8C0C0F4C23035
:102970008CE5D80709F49CC0809166038260C3305F
:10298000DC4509F498C080916603909167030E942A
:102990000B210E94B31A80E0DF91CF9108958091BE
:1029A00066038061C630ECE5DE0709F484C08091DF
:1029B00066038860C730DC4508F47DC080916603FB
:1029C000806279C0CC308CE5D80709F489C070F4F6
:1029D000809166038C60CA30ECE5DE0709F46BC0B9
:1029E00008F478C0809166038E7F65C0CE308CE598
:1029F000D80709F479C0809166038B7FCF30DC451E
:102A000008F459C0809166038F7E55C0CB3FECE53A
:102A1000DE0709F457C030F5C3318CE5D80709F457
:102A20006FC078F4C131ECE5DE0709F465C0C2314E
:102A3000DC4509F0A8CF0E94B31A809166038F7716
:102A40003AC0C5318CE5D80709F462C008F476C0F5
:102A5000809167038160CA3FDC4509F094CF809381
:102A6000670391CFCF3FFCE5DF0709F44DC088F441
:102A7000809167038D7FCD3F9CE5D90781F38091DD
:102A800067038E7FCE3FDC4550F380916703836000
:102A9000E6CFC130FDE5DF0709F459C008F444C0B2
:102AA00080E0C230DD4509F06ECF0E9489216BCFF6
:102AB0008091660381608093660365CF8091660391
:102AC0008460F9CF809167038260C9CF80916603EB
:102AD0008064F1CF0E94B31A809166038068EBCFC7
:102AE000809166038D7FE7CF80916603877FE3CF78
:102AF000809166038F7DDFCF809166038F7BDBCF74
:102B000080916603837FD7CF809167038C7FA7CFA7
:102B10008091660382FB992790F921E0922790FB30
:102B200082F990FB83F9C7CF80916703982F909526
:102B300091708E7F892B90FB81F991CF0E94B31AFF
:102B400090916603892F97FB87F98058B4CF81E075
:102B5000ACCF81E021CFCF93DF93EB0186319C4551
:102B600011F50E9435209A81992399F08A7A91E093
:102B700009F490E090933E02811109C089E20E941D
:102B800010200E94812080E0DF91CF91089585E39D
:102B9000F6CF80913E02811104C089E20E94172085
:102BA000F0CF85E3FBCF81E0EFCF90934402809399
:102BB00043020895E0914302F0914402309721F0DE
:102BC0000190F081E02D099480E00895E0914302A6
:102BD000F0914402309799F020912B01222359F073
:102BE0002091660327FF07C0DC012C9111962C93DE
:102BF000119725E02C930280F381E02D099408952C
:102C0000E0914302F0914402309739F022E0DC0178
:102C10002C930480F581E02D0994089520914102C0
:102C2000309142022817390771F090934202809345
:102C30004102E0914302F0914402309721F0068076
:102C4000F781E02D0994089520913F0230914002D0
:102C50002817390771F09093400280933F02E0916A
:102C60004302F0914402309721F00084F185E02D79
:102C70000994089585B7806885BF85B7806885BF4A
:102C80000895089508950C94411608950C944516DE
:102C90000E943A160E9442160C94431681E0089551
:102CA0000C944E160E94C6220E9462070E94A21037
:102CB0000E9457230E94C10E0C9446169F92AF9219
:102CC000BF92CF92DF92EF92FF920F931F93CF9319
:102CD000DF93CDB7DEB72A970FB6F894DEBF0FBEED
:102CE000CDBF0E94CA070E945016882309F472C003
:102CF00056E4A52E52E0B52E10E000E0902E802F75
:102D00000E9454076C01F501E190F1905F01E81613
:102D1000F90609F459C08091E80281FD0E945D071F
:102D200097012C253D2580E0EE24E394F12CA901A8
:102D30004E215F21452B09F441C08E839F82CE2016
:102D4000DF2081E0CD2809F480E088870E94CF222F
:102D50008160782F9A8789874E815F8168858A850F
:102D60000E940D17000F111FF801EA5BFD4F8081D3
:102D70009181E826F926F182E0820E94FC0E0E94F1
:102D800002250E94DA15909145028917A1F10E944F
:102D9000DA15809345022A960FB6F894DEBF0FBE6F
:102DA000CDBFDF91CF911F910F91FF90EF90DF90FA
:102DB000CF90BF90AF909F900C94F5048F5FEE0C76
:102DC000FF1C8F3009F0B3CF0F5F1F4F0530110587
:102DD00009F094CF8FEF89838A831B820E94CF22D0
:102DE0008160782F9D838C8349815A816B818D818D
:102DF0000E940D17C2CF2A960FB6F894DEBF0FBE01
:102E0000CDBFDF91CF911F910F91FF90EF90DF9099
:102E1000CF90BF90AF909F900895CF93DF93CDB7A1
:102E2000DEB72B970FB6F894DEBF0FBECDBF4F8332
:102E3000588769877A878B871E821D8285E0FE010D
:102E40003796DE01119601900D928A95E1F749813E
:102E50005A816B817C818D819E812B960FB6F8946F
:102E6000DEBF0FBECDBFDF91CF910C942C1DFC01B6
:102E7000808191810C94E21FCF93C82F882309F49D
:102E80008BC08238C1F40E94DA1581FD85C089E3C8
:102E90000E9410200E9481202FEF81EE94E02150AB
:102EA00080409040E1F700C0000089E30E941720B5
:102EB000CF910C9481208338A1F40E94DA1580FD13
:102EC0006BC083E50E9410200E9481202FEF81EECD
:102ED00094E0215080409040E1F700C0000083E57D
:102EE000E5CF8438A1F40E94DA1582FD55C087E44D
:102EF0000E9410200E9481202FEF81EE94E021504B
:102F000080409040E1F700C0000087E4CFCF8CEF15
:102F10008C0F813A90F46C2F8091170190911801D9
:102F20000E94A221882329F08C2F0E9417200E9442
:102F300081208C2F0E941020BBCF80E28C0F883024
:102F400048F4C77081E001C0880FCA95EAF70E9473
:102F50003820AECFEBE5EC0FE33040F4F0E0E65381
:102F6000FE4F808190E0CF910C940E16E8E5EC0FB7
:102F7000E73150F4F0E0EE0FFF1FE456FE4F808182
:102F80009181CF910C942416C03F30F08C2F0E9479
:102F9000FC23CF910C94E724CF910895882309F462
:102FA00052C0823871F40E94DA1581FF4CC089E367
:102FB0000E9410200E94812089E30E9417200C9417
:102FC0008120833859F40E94DA1580FF3CC083E5E4
:102FD0000E9410200E94812083E5EFCF843859F4AD
:102FE0000E94DA1582FF2FC087E40E9410200E9401
:102FF000812087E4E2CF9CEF980F913AF0F290E2C3
:10300000980F983050F4877091E001C0990F8A951D
:10301000EAF7892F0E943E20D2CF9BE5980F93308C
:1030200020F490E080E00C940E1698E5980F97310C
:1030300020F490E080E00C942416803F20F00E9461
:1030400064240C94E7240895CF93C82F0E943C1762
:10305000C93349F42FEF87EE93E021508040904030
:10306000E1F700C000008C2FCF910C94CE1788237D
:1030700021F00E9438200C9481200895882321F0AB
:103080000E943E200C9481200895BF92CF92DF923F
:10309000EF92FF920F931F93CF93DF936C01D62F84
:1030A000C72FFC01058102950F70128111110E943A
:1030B00055200E942E20E82E882391F01123D1F074
:1030C0008C2F807F803421F080E28D0F883090F04B
:1030D00082E00E94CC200E942E2091E0E82EE9267A
:1030E000BC2EB2949FE0B922EB2DF0E0EC5EF04DE7
:1030F0000C94DD2DE12CF4CF0C2F0F70C07F11F05C
:103100000295007F1123A9F0002359F080E28D0F72
:10311000883010F0D11109C0802F0E9438200E9401
:1031200081208D2F0E943C1714C0802F0E944820C0
:10313000F6CF8D2F0E94CE17002359F080E28D0F1D
:10314000883010F0D1112CC0802F0E943E200E94A8
:1031500081202B2D2850330B2430310520F40E9480
:10316000DA150E94F504EE2009F49EC10E942A207F
:1031700080FD9AC1F60112820E9424200E94B01E96
:10318000C6010E94751A0E942420DF91CF911F91E1
:103190000F91FF90EF90DF90CF90BF900C94D11ED5
:1031A000802F0E944E20D3CFFC2FFF70FF2EC07FB8
:1031B000C03219F0F29480EFF822DD2369F0D130AB
:1031C00049F1112391F1002351F1F601858180FF2E
:1031D000A8CF8F70858323C0112381F0011106C011
:1031E0000E9468208F290E943718B3CF0130C1F7A1
:1031F0000E9468208F290E946E20ABCF011106C06B
:103200000E9477208F2D0E943E18A3CF013009F431
:10321000A0CFF6CF112329F0063008F09ACF8F2DDA
:10322000E2CF053008F095CFEDCF002359F3D93325
:1032300049F4FFEF27EE33E0F15020403040E1F752
:1032400000C000008D2F0E94CE1783CF8C2F869553
:103250008695837069F0813009F07BCF8D2F9C2F8C
:103260009370111102C090E080E00E94241671CF8B
:103270008D2F9C2F9370111102C090E080E00E946E
:103280000E1667CF8D2F112329F00E94FC230E9478
:10329000E7245FCF0E946424FACF8C2F837009F05B
:1032A00041C0111156CF4D2F429546954770440F9E
:1032B000440F0D2F0F7010E030E020E0042E04C00A
:1032C000000F111F221F331F0A94D2F760E070E035
:1032D000CB01D4FF0FC06FE070E080E090E004C04D
:1032E000660F771F881F991F4A95D2F760957095D2
:1032F00080959095C695C695C370602B712B822BD7
:10330000932BC23049F058F4C13019F00E94621E6C
:1033100020CF0E94501E1DCF0E94741E1ACF0E9403
:103320004E1E17CF8695112311F08C2F81708823A4
:1033300009F40FCF4D2F429546954770440F440F27
:103340000D2F0F7010E030E020E0042E04C0000FBD
:10335000111F221F331F0A94D2F760E070E0CB01E7
:10336000D4FF0FC06FE070E080E090E004C0660F13
:10337000771F881F991F4A95D2F7609570958095A1
:103380009095C695C695C370602B712B822B932B9D
:10339000C23049F058F4C13019F00E94271FD9CE2D
:1033A0000E94151FD6CE0E94391FD3CE0E948A1EBE
:1033B000D0CECF70112329F08C2F0E94B01E8D2FFC
:1033C00012CF8D2F0E943E188C2F0E94D11EC1CE8D
:1033D000D23F89F160F4D03FC9F0D13F29F11123E8
:1033E00009F442C001119DCE8C2F8F7121C0D33FB3
:1033F00039F1D43FA1F7112369F1CF718C2F0E94CD
:10340000B01E63E08C2F0E94B720A3CE112341F0A1
:10341000053008F09ECE8C2F8F710E94F41E99CE3D
:10342000063008F096CEF7CF8C2F8F71112369F2FA
:103430000E94B01E8ECE8C2F8F711123C9F3C5CF81
:10344000112329F08C2F8F710E949B1E82CE0E9427
:10345000961E7FCE81E00E94CC20023008F479CE07
:1034600082E00E94CC2075CE002359F0D93309F0B8
:10347000E9CE8FEF97EEE3E081509040E040E1F736
:10348000DFCE8C2F8F71A1CF4C2F4F706D2FC601C7
:103490000E9455050E94C61D5CCE4C2F4F706D2FAB
:1034A000C6010E94580555CEDF91CF911F910F9113
:1034B000FF90EF90DF90CF90BF9008950F931F93F0
:1034C000CF93DF93EC01688179818A810E94EC1FA0
:1034D0008C010E944B1F0E944D1EB801CE01DF914E
:1034E000CF911F910F910C944518CF93DF93EC016E
:1034F0008B819C81892B29F08881998189238F3F39
:1035000059F4DF91CF910895CE010E945E1ACE0149
:10351000DF91CF910C94BB03CE010E940D05811168
:10352000F3CF0E942E20882361F38A81882349F3F8
:1035300082E0DF91CF910C94CC200E9455200E9414
:1035400065200E9481200E940E260E94E72490E0C0
:1035500080E00E940E1690E080E00C9424160E94F9
:103560001E200C949D1A0E9445200C94AF1AE92F3E
:10357000E295EF70E250EE3070F4F0E0EC5DF04D6B
:103580000C94DD2D803F19F020F4883E20F481E07A
:103590000895843FE1F380E00895883EC0F3813FC1
:1035A000D1F7F5CF93FB882780F908950E94E21F99
:1035B0000C94B71ACF93DF9300D000D00F92CDB701
:1035C000DEB70F900F900F900F900F90DF91CF917B
:1035D0000895CF93DF9300D000D000D0CDB7DEB7F1
:1035E00026960FB6F894DEBF0FBECDBFDF91CF9108
:1035F00008951F93CF93DF93C091510216E08091FD
:1036000052028C1304C0DF91CF911F910895D0E036
:103610001C9FF0011D9FF00D1124ED5AFD4F4081BC
:10362000518162817381848195810E94E91A21967A
:10363000C770E5CF4091830250918402609185026A
:103640007091860280918702909188020C94E91A09
:103650001F93CF93DF9380918802807FA9F480919C
:103660008502882389F080915102C09152026091B5
:10367000830270918402A0918602B0918702D62FB6
:10368000D72316E0C81304C0DF91CF911F9108958E
:1036900090E0109711F0DF3F19F401968770F2CF98
:1036A000189F9001199F300D1124F901ED5AFD4F1B
:1036B00041814713F2CF40814613EFCF4281411140
:1036C000ECCF438154814A1B5B0B483C510528F7E2
:1036D000809188028F70806180938802F901E85A96
:1036E000FD4F80818F708061808383E892E00E942B
:1036F000751ADF91CF911F910C94F91AAF92BF9276
:10370000CF92DF92EF92FF920F931F93CF93DF93AD
:10371000CDB7DEB761970FB6F894DEBF0FBECDBF51
:103720008C0185E0F801DE011D9601900D928A95CD
:10373000E1F7F80140815181E28083E8C82E82E000
:10374000D82E60918602709187026115710509F487
:1037500061C19091830220918402892F82238F3F3F
:1037600009F458C1A380B480F0908502F501E61BEE
:10377000F70BFF2009F4FCC080918802382F307FBE
:10378000E83CF10508F0B2C0311179C0FE2C2513D8
:1037900023C0941321C0E1101FC08F7080618093FB
:1037A00088020E941A1BC6010E94751A8091880225
:1037B000F80185838F2D61960FB6F894DEBF0FBE9A
:1037C000CDBFDF91CF911F910F91FF90EF90DF90D0
:1037D000CF90BF90AF900895AB2829F0842F852318
:1037E0008F3F09F033C180E0F82FF170DF2E80FFAA
:1037F0003CC0809151022091520236E0821315C0E4
:103800004D875E878D859E850E94E21F292F229518
:103810002F702230F0F0243018F59F70F1F0F8018D
:103820009581907FD1F4D12C1EC090E0389FF0019B
:10383000399FF00D1124ED5AFD4F6181651306C0CB
:103840006081641303C062816E110FC0019687709E
:10385000D5CF9F7011F0882331F3805E883018F344
:10386000C8010E94751AFD2CA5CFEE2009F4A2CF45
:1038700080918802816080938802F12C9BCF251370
:1038800006C0941304C0F801EE2009F48DC04D87E2
:103890005E878D859E850E94D61A882319F1EE20B9
:1038A00009F180918802803270F02091830230917A
:1038B000840238872F831986BB86AA868C87CE011F
:1038C00007960E94751A86E0F801A3E8B2E001901D
:1038D0000D928A95E1F70E94281B0E941A1BFF2473
:1038E000F39468CFC8010E94751AF9CF311113C043
:1038F0007A2DB98AA88A6E2D89890E94DA1A83E8FE
:1039000092E00E94751A86E0F60111928A95E9F715
:103910000E941A1BB2CF25130FC094130DC0E110E3
:103920000BC0F8018583C8010E94751A86E0F60174
:1039300011928A95E9F73ECF4D875E878D859E85EA
:103940000E94D61A882371F2EE2061F280918802DB
:10395000803208F4B8CF20918302309184023A83F8
:1039600029831B82BD82AC828E83CE010196A9CFB2
:10397000E83CF10508F041C0FE2CEE2009F4B2CF7E
:1039800025132AC0941328C08091880280FD1BC093
:10399000982F907FC1F0F8018583903F31F0982FE8
:1039A000907F905F8F70892B8583C8010E94751A64
:1039B00086E0F801A3E8B2E001900D928A95E1F764
:1039C0000E941A1BF7CE86E0F801A3E8B2E001904E
:1039D0000D928A95E1F7EECE4D875E878D859E85A7
:1039E0000E94D61A81116FCF8091880281608093E6
:1039F0008802C8010E94751ADDCE7A2DB98AA88A7C
:103A00006E2D89890E94DA1A86E0F60111928A9554
:103A1000E9F7D6CFEE2009F465CF4D875E878D8517
:103A20009E850E94D61AF82E882309F45BCF86E083
:103A3000F801A3E8B2E001900D928A95E1F783E8DE
:103A400092E00E9437170E94281BBACF81E08E2592
:103A5000CBCE88EC90E008951F93CF93DF93CDB742
:103A6000DEB72C970FB6F894DEBF0FBECDBF4F83E5
:103A7000588769877A878B879C87CE0107960E9433
:103A80007E1B882369F08A859B85892B39F04F81BD
:103A90005885842F85238F3F09F071C016E05FC0E1
:103AA00086E0FE013796DE01119601900D928A950F
:103AB000E1F78A859B85892B89F38F8198858923F6
:103AC0008F3F61F32091520230E0C9010196877067
:103AD0009927409151024817190671F40E94B31AB0
:103AE000109252021092510286E0E3E8F2E0DF0108
:103AF0001D928A95E9F7D2CF96E0929FD001939FCD
:103B0000B00D1124AD5ABD4FFE01319601900D92BA
:103B10009A95E1F7809352020E94F91ABFCF819FD4
:103B2000C00111248D5A9D4F0E947E1B8823E9F00D
:103B3000E09151021E9FF0011124ED5AFD4F40818A
:103B4000518162817381848195810E94E91A8091FB
:103B5000510290E0019687709927809351028091DD
:103B60005102909152028913DACF2C960FB6F89435
:103B7000DEBF0FBECDBFDF91CF911F910895698544
:103B80007A858B859C850E94E91A88CFEF92FF92F7
:103B90000F931F93CF93DF938C01892B81F0F12C2E
:103BA000EE24E394E8012196F8018491843770F4BF
:103BB000843008F05FC08130B1F08230A1F1DF9134
:103BC000CF911F910F91FF90EF900895853709F4E1
:103BD0004CC008F43DC09CE7980F903780F78F7772
:103BE0000E94CE1749C00E5F1F4FFE01849190E2E4
:103BF000980F983060F48770FE2D01C0FF0F8A95F2
:103C0000EAF78F2F0E9458200E94812002C00E9454
:103C10003C178F2D815030F2EFE9FFE03197F1F73B
:103C200000C00000F7CF0E5F1F4FFE01849190E2AD
:103C3000980F983050F48770FE2D01C0FF0F8A95C1
:103C4000EAF78F2F0E945E20DFCF0E94CE17E1CFD0
:103C50000E5F1F4FFE01C491C150D8F28FE99FE063
:103C60000197F1F700C00000F7CF0E5F1F4FFE0174
:103C7000F490CFCF0E943C178E01CBCF08950C94C7
:103C80003E1E0E943F1E6093BF027093C00280934D
:103C9000C1029093C2020C949D1A08950C94411E87
:103CA0000F931F930091BF021091C0022091C10297
:103CB0003091C202602B712B822B932B1F910F919D
:103CC0000C94411E0F931F930091BF021091C002EC
:103CD0002091C1023091C202602371238223932379
:103CE0001F910F910C94411E0F931F930091BF02DF
:103CF0001091C0022091C1023091C2026027712749
:103D0000822793271F910F910C94411E0C943E1E05
:103D10000C94861E0E94881E6093BB027093BC02A6
:103D20008093BD029093BE020C949D1A60E070E0F7
:103D3000CB010C948A1E0F931F9341E050E060E08A
:103D400070E08A019B0104C0000F111F221F331F66
:103D50008A95D2F7C901B8011F910F910C948A1E60
:103D60000F931F9341E050E060E070E004C0440F07
:103D7000551F661F771F8A95D2F78091BB029091DD
:103D8000BC02A091BD02B091BE028A019B01082B2A
:103D9000192B2A2B3B2BC901B8011F910F910C94B1
:103DA0008A1E0F931F9341E050E060E070E004C072
:103DB000440F551F661F771F8A95D2F7CB01BA01B2
:103DC00060957095809590950091BB021091BC0212
:103DD0002091BD023091BE02602371238223932380
:103DE0001F910F910C948A1E0F931F9341E050E096
:103DF00060E070E004C0440F551F661F771F8A956E
:103E0000D2F78091BB029091BC02A091BD02B0910B
:103E1000BE028A019B01082719272A273B27C901CF
:103E2000B8011F910F910C948A1E0F931F9300915C
:103E3000BB021091BC022091BD023091BE02602BEA
:103E4000712B822B932B1F910F910C948A1E0F9331
:103E50001F930091BB021091BC022091BD023091D2
:103E6000BE0260237123822393231F910F910C9430
:103E70008A1E0F931F930091BB021091BC022091E8
:103E8000BD023091BE0260277127822793271F91C0
:103E90000F910C948A1E08952FE0929F800D11249B
:103EA000982F977041E001C0440F9A95EAF78695E4
:103EB0008695869595E0899FF0011124E757FD4F7F
:103EC00090E080E070E05191DF0111979B01082E96
:103ED00002C0369527950A94E2F72170219525278F
:103EE000242325272C9301968530910561F70895A9
:103EF0002FE0929F800D1124982F977086958695BC
:103F0000869525E0829FF0011124E757FD4F50E090
:103F100040E080E0219130E0092E02C036952795DF
:103F20000A94E2F721703327042E01C0220F0A946D
:103F3000EAF7822B4F5F5F4F4530510559F70895DF
:103F4000BF92CF92DF92EF92FF920F931F93CF9386
:103F5000DF938C01C090BB02D090BC02E090BD0208
:103F6000F090BE028091BF029091C002A091C10268
:103F7000B091C202C82AD92AEA2AFB2ACFE1D0E0AE
:103F8000BC2ED701C6010C2E04C0B695A7959795F7
:103F900087950A94D2F780FD0EC0219788F7B12C3F
:103FA0008B2DDF91CF911F910F91FF90EF90DF90BC
:103FB000CF90BF900895B8018C2F0E9461050197A2
:103FC00061F3EECFCF93DF93EC010E94A01FBE01FF
:103FD000DF91CF910C9461051F93CF93DF93EB0199
:103FE00090915002992331F0CB01DF91CF911F9135
:103FF0000C94E21F882379F0CB010E94A01F182F98
:10400000682FCE010E944C1FBE01812FDF91CF91FE
:104010001F910C946105CB010E94781F182FF4CFDB
:10402000682F80911701909118010C942222682F1B
:1040300080911701909118010C942D228091170105
:10404000909118010C9438228091C3028595859532
:10405000859508958091C302877008959091C30259
:10406000977081E009F480E008958091E702089557
:104070009091E702892B8093E702089580959091B3
:10408000E70298239093E70208951092E7020895BB
:104090009091E602892B8093E60208958095909195
:1040A000E60298239093E60208951092E60208959E
:1040B0009091E502892B8093E50208958095909177
:1040C000E50298239093E50208951092E502089581
:1040D0008091C402089508950C946B209091C402BD
:1040E000981721F08093C4020C946C20089580915D
:1040F000C402882329F01092C40280E00C946C2042
:104100000895E0911701F09118018091E7028083F2
:10411000E0911701F091180180819091E602892BBE
:104120008083E0911701F091180180819091E50260
:10413000892B80839091C402992381F0E09117012B
:10414000F09118018081892B8083809117019091D3
:1041500018010E948E2181110E9477208091170101
:10416000909118010C94E61508950C94B42098E0F1
:10417000899F90011124622B6093C3020E94B01E9C
:104180008091C3028595859585950C94B5201092F4
:10419000C30280E00C94B5209091C30280958923DE
:1041A0008093C302282F277071F4282F082E000C4B
:1041B000330B9217130639F08595859585950E94E6
:1041C000D11E0C94C72008956FEF7FEF90E080E040
:1041D0000C94B62E90E080E00E94922E21E08C3E5E
:1041E0009E4F09F020E0822F089582E090E00C9429
:1041F000842E83E090E00C94842ECF9384E090E0B2
:104200000E94842EC82F81E290E00E94842E982F75
:104210008C2FCF910895CF93C92F682F84E090E021
:104220000E94982E6C2F81E290E0CF910C94982EF2
:10423000AB01BC018FE090E00C94AA2EAB01BC0155
:1042400083E190E00C94AA2E60E070E0CB010C9426
:104250001E2160E070E0CB010E9418210C94242103
:104260006CEE7EEF90E080E00E94B62E60E082E08F
:1042700090E00E94982E60E083E090E00E94982EEB
:104280001092BF021092C0021092C1021092C2029C
:1042900060E084E090E00E94982E60E081E290E08F
:1042A0000E94982E60E085E090E00E94982E60E0E9
:1042B00086E090E00E94982E6FEF87E090E00E94E9
:1042C000982E40E050E0BA0188E090E00E94AA2ECB
:1042D00060E08DE090E00E94982E40E050E0BA014E
:1042E00088E190E00E94AA2E60E087E190E00E94C1
:1042F000982E40E050E0BA018CE190E00E94AA2E96
:1043000060E080E290E00E94982E0C9429210C94A9
:104310003021682F8EE090E00C94982EFC013296AC
:1043200080912B01882321F0809166039EE187FF15
:1043300096E080E0915008F4089521912223D1F372
:104340008F5FF8CF662301F120912B012223F1F03A
:104350002091660327FF1AC0462F4695469546953D
:104360004E3190F4677021E030E002C0220F331F1D
:104370006A95E2F7840F911DFC01828190E0282369
:10438000392381E0232B69F480E00895FC01329603
:1043900008962191261721F0E817F907D1F7F4CFF5
:1043A00081E008959C01FC0132969FEF80E04191ED
:1043B000461751F09F3F19F4411101C0982F8F5FAC
:1043C0008630A9F79F3F09F40895290F311D97FD05
:1043D0003A95F90162830895FC013296089621917D
:1043E000261303C0DF0111971C92E817F907B9F7EC
:1043F0000895E62FE695E695E695EE3168F4E80F28
:10440000F92FF11D677021E030E001C0220F6A959D
:10441000EAF78281822B82830895E62FE695E6955E
:10442000E695EE3170F4E80FF92FF11D677021E089
:1044300030E001C0220F6A95EAF720958281282397
:104440002283089520912B01222329F020916603D5
:1044500027FD0C94F9210C94D22120912B012223C9
:1044600029F02091660327FD0C940D220C94EC2179
:10447000FC01329680912B01882351F080916603D4
:1044800087FF06C08EE1DF011D928A95E9F7089546
:1044900086E0F9CF089508950C944B220E944C2297
:1044A00080916C03843049F11092E90288E190E038
:1044B00020E40FB6F894A895809360000FBE209377
:1044C000600080E00E94F5040E944C2283B7817F47
:1044D000846083BF83B7816083BF7894889583B7F6
:1044E0008E7F83BF0FB6F894A89580916000886195
:1044F00080936000109260000FBE08950895CF93DE
:104500000E944A220E94CA070E947E22C0E08C2F8D
:104510000E945407892B31F4CF5FC530C1F780E08A
:10452000CF91089581E0FCCF08950C9494220E94CD
:10453000B31A0E94DA150E94F5040C9495221F927A
:104540001FB61F9211248F939F93AF93BF938091B7
:10455000E902811113C08091620390916303A091DD
:104560006403B09165034196A11DB11D8093620360
:1045700090936303A0936403B0936503BF91AF91DD
:104580009F918F911F901FBE1F90189582E084BD50
:1045900093E095BD9AEF97BD80936E0008952FB775
:1045A000F8948091620390916303A0916403B091A9
:1045B00065032FBF08952FB7F8946091620370913F
:1045C000630380916403909165032FBF08959C015C
:1045D0004FB7F8948091620390916303A0916403B4
:1045E000B09165034FBF821B930B089578941F927F
:1045F0001FB61F9211248F939F93AF93BF93809107
:10460000620390916303A0916403B09165030196E6
:10461000A11DB11D8093620390936303A093640373
:10462000B0936503BF91AF919F918F911F901FBE73
:104630001F90189581E08093E00080E28093D8007D
:104640001092C9008FE19EE40197F1F700C00000CD
:1046500087E090EBDC018093750390937603A09341
:104660007703B093780388E19CE00FB6F894A8959F
:10467000809360000FBE90936000FFCF0C948F106A
:104680000E94CA072FEF86E791E0215080409040BA
:10469000E1F700C000000E94CA0780E00E945407B2
:1046A00080FF04C00E943E230C941A2308950E94A8
:1046B000EA20811102C00E9487210E94F520809388
:1046C000E8020E94FD2090936703809366030E9496
:1046D000F920682F70E090E080E00E944E1E60910B
:1046E000BB027091BC028091BD029091BE020C94FD
:1046F000881E8091F00280FF12C060911E0185E04B
:10470000689FB00111247595679575956795603818
:104710007105A8F561157105A1F1862F089581FF36
:1047200009C060911E0185E0689FB0011124759554
:104730006795EDCF60911E0182FD0AC08091EF0266
:104740008823D1F090911D0160911E01891728F0F6
:1047500085E0689FB0011124DACF869FB001112453
:1047600085E0869F9001879F300D1124692F70E0AE
:10477000C9010E94A72DCBCF65E070E0CECF8FE7B7
:10478000089581E008958091F00280FF0CC060914F
:104790001A0170E0759567957595679561157105B6
:1047A00049F1862F089581FF06C060911A0170E0DB
:1047B00075956795F3CF60911A0182FD0BC09091BA
:1047C000EE029923A1F06091190180911A019617C8
:1047D00038F0682F70E06038710500F38FE70895B6
:1047E000899FC001112470E00E94A72DF4CF61E0E1
:1047F00070E0D7CF81E00895803F31F40E947923A3
:1048000081958093F4020895813F19F40E947923E1
:10481000F8CF823F31F40E94792381958093F3028F
:104820000895833F19F40E947923F8CF893F29F432
:104830000E94C3238093F50208958A3F21F40E94C9
:10484000C3238195F7CF8B3F31F40E94C323819519
:104850008093F60208958C3F19F40E94C323F8CF89
:10486000843F31F48091F20281608093F2020895D6
:10487000853F21F48091F2028260F7CF863F21F4D8
:104880008091F2028460F1CF873F21F48091F2029F
:104890008860EBCF883F21F48091F2028061E5CF00
:1048A0008D3F31F48091F00281608093F002089591
:1048B0008E3F21F48091F0028260F7CF8F3FB9F7ED
:1048C0008091F0028460F1CF9091F302803F59F41F
:1048D0008091F40287FF0DC01092F40291110BC079
:1048E0001092EF0208C0813F81F48091F402181603
:1048F0009CF3992381F08091F5029091F602892B27
:1049000009F064C01092EE020895823F49F497FFC7
:10491000F0CF1092F3028091F4028111ECCFE0CF3E
:10492000833F19F41916ACF3E4CF2091F502893FC7
:1049300029F41216F4F61092F502DBCF8A3F19F42F
:1049400027FFD7CFF8CF2091F6028B3F29F427FF1E
:10495000D0CF1092F602CDCF8C3F19F41216CCF3C3
:10496000C8CF843F31F48091F2028E7F8093F202AF
:10497000C0CF853F21F48091F2028D7FF7CF863F33
:1049800021F48091F2028B7FF1CF873F21F4809157
:10499000F202877FEBCF883F21F48091F2028F7E75
:1049A000E5CF8D3F31F48091F0028E7F8093F0024D
:1049B000A0CF8E3F21F48091F0028D7FF7CF8F3F03
:1049C00009F097CF8091F0028B7FF0CF08950E947D
:1049D000CF229C019091F3028091F402982B21F058
:1049E0003093ED022093EC029091F5028091F60253
:1049F000982B21F03093EB022093EA0281EF92E0B2
:104A00000C940016EF92FF920F931F93CF93DF93B6
:104A100000D000D000D0CDB7DEB786E0E1EFF2E005
:104A2000DE01119601900D928A95E1F7E090F30274
:104A3000F090F4020091F5021091F6021092F30248
:104A40001092F4021092F5021092F6028E2D8F2928
:104A500091F08091EC029091ED020E94E722AC016E
:104A60009091EF02992309F43FC080911F018417B0
:104A7000150608F447C0802F812B91F08091EA023F
:104A80009091EB020E94E722AC019091EE029923F3
:104A900009F477C080911B018417150608F47FC0C4
:104AA0008091F3029091F402892B9091F502892B69
:104AB0009091F602892B11F00E94E72486E0FE0116
:104AC0003196A1EFB2E001900D928A95E1F726961A
:104AD0000FB6F894DEBF0FBECDBFDF91CF911F910F
:104AE0000F91FF90EF900895209120018AE0289F78
:104AF000900111242417350708F0BDCF9F5F9093D4
:104B0000EF0202C09F3FD1F7EE2059F00E947923B7
:104B10009FEF1E140CF491E0899F802D1124809347
:104B2000F302FF2059F00E9479239FEF1F140CF429
:104B300091E0899F802D11248093F4023091F3023B
:104B4000332309F498CF2091F402222309F493CF60
:104B500045EB3403C0011124992359F09093F302DB
:104B600045EB240390011124332339F03093F402F0
:104B700082CF81E08093F302F3CF81E08093F4024F
:104B80007ACF20911C018AE0289F900111242417DC
:104B9000350708F085CF9F5F9093EE0202C09F3FDC
:104BA000D1F7002359F00E94C3239FEF10160CF495
:104BB00091E0899F802D11248093F502112359F0F3
:104BC0000E94C3239FEF11160CF491E0899F802D62
:104BD00011248093F6023091F502332309F460CF5B
:104BE0002091F602222309F45BCF45EB3403C00188
:104BF0001124992359F09093F50245EB2403900179
:104C00001124332339F03093F6024ACF81E08093A8
:104C1000F502F3CF81E08093F60242CF86E0E1EF28
:104C2000F2E0DF011D928A95E9F71092EF021092EF
:104C3000EE021092F0020895809117030895CF9329
:104C4000DF9300D00F92CDB7DEB790916C03943014
:104C500011F589837B836A839093E9008FEF9091AC
:104C6000E800815095FD06C095ED9A95F1F700009A
:104C70008111F5CF8091E80085FF0DC050E040E044
:104C800063E070E0CE0101960E94A7288091E800C1
:104C90008E778093E8000F900F900F90DF91CF9167
:104CA0000895BC0184E00C941F26BC0183E00C94A1
:104CB0001F269C0184E08093E9009FEF8091E8002B
:104CC000915085FD06C085ED8A95F1F700009111A0
:104CD000F5CF8091E80085FF0CC050E040E066E031
:104CE00070E0C9010E94A7288091E8008E77809328
:104CF000E8000895CF93DF93EC0180912B01882386
:104D0000B1F18091660387FF32C060E284E0809356
:104D1000E9008FEF9091E800815095FD06C095ED78
:104D20009A95F1F700008111F5CF8091E80085FF99
:104D30001BC080912B0170E050E040E0811104C065
:104D400050E040E068E070E0CE010E94A72880912A
:104D5000E8008E778093E80080E2FE01A7EFB2E0E2
:104D600001900D928A95E1F7DF91CF91089568E067
:104D700081E0CDCFCF93FC01603221F580916C03AF
:104D8000843001F5C091E900CF702091EC00922FA2
:104D9000917020FD90E8C92B82E08093E90080911A
:104DA000E80080FF0CC050E040E060E270E0CF011E
:104DB0000E94A7288091E8008E778093E800CF704A
:104DC000C093E900CF91089580916B03811109C0D0
:104DD0000E94862A0E94E32A8091E20084608093E8
:104DE000E200089510926B030895089508950C94BD
:104DF000972242E061EC81E00E94022A42E261ECEB
:104E000084E00E94022A42E261EC82E00E94022ACF
:104E100042E260EC83E00C94022A80916E038330BE
:104E200009F461C030F48130D1F1823009F49DC0C1
:104E300008958A3009F489C08B3009F46FC0893035
:104E400009F050C080916D03813209F04BC0809110
:104E5000710390917203009719F0029709F042C014
:104E60008091E800877F8093E8008091E80082FFCE
:104E700035C09091F3008091F200029729F480915F
:104E8000F1008B7F813021F48091F1008093170332
:104E90008091E8008B778093E8000C94362A80910B
:104EA0006D03813AF9F48091E800877F8093E800F0
:104EB0008091710390917203892B61F460E287EF16
:104EC00092E070E00E9445298091E8008B77809302
:104ED000E800089560E090E080E0F3CF80916C03FB
:104EE0008111C3CF089580916D03813AD9F78091E4
:104EF000710390917203892BA9F78091E800877F55
:104F00008093E8008091E80080FFFCCF80912B0126
:104F10008093F1008091E8008E77BDCF80916D0382
:104F2000813201F78091710390917203892BD1F640
:104F30008091E800877F8093E8000E94362A809164
:104F40006F0380932B010C94B31A80916D0381320F
:104F500049F68091E800877F8093E8000E94362A16
:104F60008091700380931803089580916D03813AB6
:104F700009F0B8CF8091E800877F8093E8008091A6
:104F8000E80080FFFCCF80911803C2CFCDB7DEB719
:104F9000A0970FB6F894DEBF0FBECDBF84B7877F52
:104FA00084BF0FB6F894A8958091600088618093C3
:104FB0006000109260000FBE80E890E00FB6F89499
:104FC00080936100909361000FBE0E9448160E947A
:104FD000862A0E94E32A8091E20084608093E200A6
:104FE00078940E946C2D0E94521681E291E00E94FA
:104FF000D51513E080916C03853039F10E945E165F
:1050000080916C038430B1F71093E9008091E8003F
:1050100082FFF0CF8091E80090E085FF09C050E06A
:1050200040E060E270E0CE0101960E94F62891E037
:105030008091E8008B778093E8009923D9F260E2B1
:10504000CE0101960E944711D5CF0E944E22809139
:105050006A03882379F20E947F22882359F20E94F2
:105060009128C8CF0C943428292F332723303105B9
:1050700021F168F42130310509F449C022303105AD
:1050800009F44AC090E080E030E020E029C02132FD
:10509000310581F122323105A9F76330710590F7AE
:1050A000FB01EE0FFF1FE053FE4F20813181635360
:1050B0007E4FFB01808190E013C0992781309105DC
:1050C00099F0009741F08230910589F00397D1F66D
:1050D000E2E9F4E002C0E4ECF4E0849190E09F01A6
:1050E000FA01318320830895ECEAF4E0F6CFE8E991
:1050F000F4E0F3CF6330710528F6660F771FFB01EC
:10510000EA52FE4F2081318189E090E0E9CF82E1CF
:1051100090E023E235E0E4CF8BE590E028EC34E04A
:10512000DFCF80E189BD82E189BD09B400FEFDCFFA
:105130008091D8008F7D8093D8008091E0008260BC
:105140008093E0008091E00081FDFCCF0895AF9254
:10515000BF92CF92DF92FF920F931F93CF93DF9373
:105160006C01EB018A010E94552AF82E811123C09F
:105170000115110539F0F80180819181C81BD90B07
:10518000C80ED91EB12CA12C2097A9F08091E8005F
:1051900085FD22C08091E8008E778093E80001159C
:1051A0001105A1F0F80180819181A80EB91EB1828C
:1051B000A08285E0F82E8F2DDF91CF911F910F9166
:1051C000FF90DF90CF90BF90AF9008950E94552A36
:1051D0008823D1F2F82EEFCFF60181916F018093F1
:1051E000F1002197FFEFAF1ABF0ACECFAF92BF9267
:1051F000CF92DF92FF920F931F93CF93DF936C01B7
:10520000EB018A010E94552AF82E811123C0011555
:10521000110539F0F80180819181C81BD90BC80EA6
:10522000D91EB12CA12C2097A9F08091E80085FD12
:1052300022C08091E8008B778093E800011511056A
:10524000A1F0F80180819181A80EB91EB182A082DF
:1052500085E0F82E8F2DDF91CF911F910F91FF9058
:10526000DF90CF90BF90AF9008950E94552A882379
:10527000D1F2F82EEFCF8091F100F60181936F010A
:105280002197FFEFAF1ABF0ACECFFC0180917303C5
:105290009091740386179707A0F06115710529F4A2
:1052A0009091E8009E779093E80090E06115710579
:1052B00051F4911108C08091E80082FF34C080E071
:1052C0000895BC01F2CF80916C038823C1F1853031
:1052D000C1F18091E80083FD30C08091E80082FD3B
:1052E000EACF8091E80080FFE1CF8091F300209128
:1052F000F200382F6115710519F02830310558F08A
:1053000091E02830310509F090E02091E8002E77F7
:105310002093E800CBCF81918093F1006150710917
:105320002F5F3F4FE7CF80916C03882341F085309A
:1053300041F08091E80083FFBECF81E0089582E0D4
:10534000089583E00895FC018091730390917403A4
:1053500086179707A0F06115710529F48091E80080
:105360008E778093E80090E06115710551F49111FA
:1053700008C08091E80082FF35C080E00895BC013C
:10538000F2CF80916C038823C9F18530C9F18091F7
:10539000E80083FD31C08091E80082FDEACF809172
:1053A000E80080FFE1CF8091F3002091F200382FD8
:1053B0006115710519F02830310558F091E0283059
:1053C000310509F090E08091E8008E778093E80045
:1053D000CBCF84918093F1003196615071092F5F9A
:1053E0003F4FE6CF80916C03882341F0853041F038
:1053F0008091E80083FFBDCF81E0089582E00895A9
:1054000083E00895982F973028F08F708093E900FB
:1054100081E008959093E900242F762F50E09817AB
:1054200031F07091EC002091ED005091F00021FDE1
:1054300002C09F5FE8CF3091EB003E7F3093EB00DE
:105440003091ED003D7F3093ED003091EB00316005
:105450003093EB007093EC002093ED005093F0003C
:105460002091EE0027FDE5CF80E0089580916D0347
:1054700087FF13C08091E80082FF06C08091E8009A
:105480008B778093E80004C080916C038111F2CF88
:10549000089580916C038823D9F38091E80080FF00
:1054A000F8CF8091E8008E77ECCF2091E400309126
:1054B000E50095E6A9012091EC00822F817020FF84
:1054C00006C08091E80080FF06C080E0089520912A
:1054D000E80022FD1AC080916C03882389F0853092
:1054E00089F08091EB0085FD0FC02091E4003091A0
:1054F000E50042175307F9F29150E1F684E0089570
:1055000082E0089583E0089581E008950E94F42ADE
:105510000E94FC2AE0EEF0E0808181608083E8ED6B
:10552000F0E080818F77808319BCA7EDB0E08C918B
:105530008E7F8C9380818F7E808310926B03089581
:105540000F931F93CF93DF930E94F42A0E94FC2AAB
:10555000C8EDD0E088818F778883888180688883D0
:1055600088818F7D888319BC10926C031092680328
:1055700010926A031092690300EE10E0F801808136
:105580008B7F808388818160888342E060E080E057
:105590000E94022AE1EEF0E080818E7F8083E2EEBD
:1055A000F0E0808181608083808188608083F80161
:1055B00080818E7F8083888180618883DF91CF9115
:1055C0001F910F910895E8EDF0E080818F7E808338
:1055D000E7EDF0E080818160808384E082BF81E03C
:1055E00080936B030C94A02AE8EDF0E080818E7F1D
:1055F00080831092E20008951092DA001092E10088
:1056000008951F920F920FB60F9211242F933F937C
:105610004F935F936F937F938F939F93AF93BF93BA
:10562000EF93FF938091E10082FF0BC08091E20035
:1056300082FF07C08091E1008B7F8093E1000E9490
:105640006B2D8091DA0080FF19C08091D80080FF17
:1056500015C08091DA008E7F8093DA008091D900A6
:1056600080FF96C080E189BD82E189BD09B400FE5A
:10567000FDCF81E080936C030E94E4268091E100DD
:1056800080FF19C08091E20080FF15C08091E20088
:105690008E7F8093E2008091E20080618093E2003F
:1056A0008091D80080628093D80019BC85E08093F7
:1056B0006C030E94F6268091E10084FF2BC080914C
:1056C000E20084FF27C080E189BD82E189BD89B500
:1056D000982F917080FFFBCF8091D8008F7D8093B1
:1056E000D8008091E1008F7E8093E1008091E200FC
:1056F0008F7E8093E2008091E20081608093E200DF
:1057000080916803882309F449C084E080936C0386
:105710000E94F7268091E10083FF29C08091E2007A
:1057200083FF25C08091E100877F8093E10082E0C4
:1057300080936C03109268038091E1008E7F8093C8
:10574000E1008091E2008E7F8093E2008091E20090
:1057500080618093E20042E060E080E00E94022AE3
:105760008091F00088608093F0000E94F526FF9100
:10577000EF91BF91AF919F918F917F916F915F91C9
:105780004F913F912F910F900FBE0F901F90189542
:1057900019BC10926C030E94F22670CF8091E30036
:1057A00087FD93E090936C03B3CF1F920F920FB6D7
:1057B0000F9211242F933F934F935F936F937F9397
:1057C0008F939F93AF93BF93CF93DF93EF93FF9309
:1057D000D091E900DF708091EC00C82FC17080FD8E
:1057E000C0E81092E9008091F000877F8093F0007C
:1057F00078940E94192C1092E9008091F000886042
:105800008093F000CD2BCF70C093E900FF91EF9112
:10581000DF91CF91BF91AF919F918F917F916F91C8
:105820005F914F913F912F910F900FBE0F901F905E
:1058300018951F93CF93DF93CDB7DEB7AA970FB616
:10584000F894DEBF0FBECDBF8DE693E02091F1004E
:10585000FC012193CF01F3E085379F07B9F70E9440
:105860000D278091E80083FF1EC180916D03909108
:105870006E039A3008F017C1E92FF0E0EE5CF04DAE
:105880000C94DD2D803899F0823809F00CC180919C
:1058900071038F70873008F006C18093E900809112
:1058A000EB0085FB882780F91092E90006C0809103
:1058B000690390916A03911182609091E800977F4B
:1058C0009093E8008093F1001092F1008091E8003D
:1058D0008E77E5C0882309F4D3C0823009F0E3C095
:1058E00080916F038111D6C0809171038F702FEF6B
:1058F000280F263008F0D7C08093E9002091EB00F4
:1059000020FFC8C0933031F48091EB008062809317
:10591000EB00C0C09091EB0090619093EB0021E010
:1059200030E001C0220F8A95EAF72093EA00109236
:10593000EA008091EB008860EACF8111B4C0109139
:105940006F031F778091E3008078812B8093E300C1
:105950008091E800877F8093E8000E94362A80913A
:10596000E80080FFFCCF8091E30080688093E30033
:1059700082E0111183E080936C0395C080588230DF
:1059800008F091C080916F03909170038C3D23E0EB
:105990009207A1F583E08A838AE289834FB7F8945E
:1059A000DE01139620E03EE051E2E32FF0E0509359
:1059B0005700E49120FF03C0E295EF703F5FEF7066
:1059C0008E2F90E0EA30C0F0C7968D939D932F5FA5
:1059D000243159F74FBF8091E800877F8093E8001A
:1059E0006AE270E0CE0101960E9445298091E800AC
:1059F0008B778093E80057C0C096E7CF6091710322
:105A000070917203AE014F5F5F4F0E943228BC015C
:105A1000892B09F448C09091E800977F9093E800A3
:105A200089819A810E94A329E1CF8038E1F5809194
:105A3000E800877F8093E800809168038093F100FD
:105A400045CF811130C090916F03923060F5809105
:105A5000E800877F8093E800909368030E94362ACD
:105A600080916803882311F084E005C08091E300F1
:105A700087FDFACF81E080936C030E94F92613C062
:105A800080916F03813079F481E0933009F080E0F8
:105A900080936A031092E9008091E800877F8093E9
:105AA000E8000E94362A8091E80083FF0AC08091B6
:105AB000E800877F8093E8008091EB00806280930C
:105AC000EB00AA960FB6F894DEBF0FBECDBFDF91F4
:105AD000CF911F9108950895CF9380916C038823EF
