:100000000C94B9020C9400030C9400030C940003AC
:100010000C9400030C9400030C9400030C94000354
:100020000C9400030C9400030C946A260C943E2755
:100030000C948F1D0C9400030C9400030C9400038B
:100040000C9400030C9400030C9400030C94000324
:100050000C9400030C94DA1D0C9400030C94000320
:100060000C9400030C9400030C9400030C94000304
:100070000C9400030C9400030C9400030C940003F4
:100080000C9400030C9400030C9400030C940003E4
:100090000C9400030C9400030C9400030C940003D4
:1000A0000C9400030C9400030C94000329001E0020
:1000B0001F0020002100220023002400250026002C
:1000C00027002D002E002A004A002B0014001A00E1
:1000D0000800150017001C0018000C001200130087
:1000E0002F00300031004B00820004001600070092
:1000F00009000A000B000D000E000F003300340051
:10010000000028004E00E1001D001B000600190041
:100110000500110010003600370038000000E5002F
:1001200052004D00E000E300E2000000000000008B
:100130002C0000000000E6000151000050005100BA
:100140004F003A003B003C003D003E003F004000B5
:1001500041004200430044004500010001004C0002
:100160000100BF5CC05CBB5CBC5CBE5CBD5CC15CD8
:100170000100010001000100010001004600010032
:100180000100010001000100010001000100010067
:100190000100010001000000010001000100010058
:1001A0000100010001000100010001000100010047
:1001B0000100000001000100010001000100010038
:1001C000000000000000010000000000010001002C
:1001D000000001000100010032190A00047F3F1FE6
:1001E000643214643214783C1E1E140A052223253E
:1001F0002628292A2C2D2F3032333536383A3B3DEC
:100200003E4042434547494A4C4E50515355575939
:100210005A5C5E6062646668696B6D6F7173757756
:10022000797B7D7F81838587898A8C8E9092949655
:10023000989A9C9E9FA1A3A5A7A8AAACAEAFB1B364
:10024000B4B6B8B9BBBCBEBFC1C2C3C5C6C7C9CAB4
:10025000CBCCCDCED0D1D2D2D3D4D5D6D7D7D8D976
:10026000D9DADADBDBDBDCDCDCDCDCDDDDDDDDDCD4
:10027000DCDCDCDCDBDBDBDADAD9D9D8D7D7D6D5E6
:10028000D4D3D2D2D1D0CECDCCCBCAC9C7C6C5C3A8
:10029000C2C1BFBEBCBBB9B8B6B4B3B1AFAEACAAF5
:1002A000A8A7A5A3A19F9E9C9A98969492908E8CA5
:1002B0008A89878583817F7D7B79777573716F6D7F
:1002C0006B6968666462605E5C5A59575553515059
:1002D0004E4C4A4947454342403E3D3B3A3836350D
:1002E0003332302F2D2C2A292826252322FFAA7FBE
:1002F0005540000101010101010101010202020258
:1003000002020202020303030303030303040404BF
:100310000404040405050505050606060606070788
:1003200007070708080808090909090A0A0A0B0B40
:100330000B0C0C0C0D0D0D0E0E0E0F0F0F101011DF
:100340001111121213131414151516161717181865
:1003500019191A1A1B1B1C1D1D1E1E1F20202122CD
:1003600022232424252626272829292A2B2C2D2D13
:100370002E2F30313232333435363738393A3B3C30
:100380003D3E3F404142434445464748494A4C4D23
:100390004E4F50515354555658595A5B5D5E5F61EC
:1003A0006264656668696B6C6D6F7072737577787F
:1003B0007A7B7D7E8082838587888A8C8E8F9193DD
:1003C0009596989A9C9EA0A2A3A5A7A9ABADAFB104
:1003D000B3B5B7BABCBEC0C2C4C6C9CBCDCFD1D4E9
:1003E000D6D8DBDDDFE2E4E7E9EBEEF0F3F5F8FA8F
:1003F000FDFF04033000000012036B00650079006C
:1004000062006F006100720064000000160371005A
:100410006D006B006200750069006C00640065008F
:10042000720000000403090409023B00020100A05D
:10043000FA09040000010301010009211101000172
:100440002240000705810308000A09040100010396
:1004500000000009211101000122BC0007058203F0
:1004600020000A1201100100000008EDFE6060018A
:10047000000102030105010902A10185020901A190
:10048000000509190129051500250195057501814A
:100490000295017503810105010930093115812596
:1004A0007F95027508810609381581257F950175AC
:1004B000088106050C0A38021581257F950175080B
:1004C0008106C0C005010980A101850319012AB771
:1004D00000150126B700950175108100C0050C09B3
:1004E00001A101850419012AA002150126A0029587
:1004F0000175108100C005010906A10185050507E8
:1005000019E029E715002501950875018102050705
:10051000190029EF1500250195F0750181020508E4
:100520001901290595057501910295017503910140
:10053000C005010906A101050719E029E7150025F5
:10054000019508750181029501750881010507195A
:100550000029FF150026FF00950675088100050893
:100560001901290595057501910295017503910100
:10057000C00011241FBECFEFDAE0DEBFCDBF04B64E
:1005800003FE27C08091670390916803A0916903DF
:10059000B0916A038730904BA740B04BD1F41092D2
:1005A0006703109268031092690310926A0314BEE5
:1005B00084B7877F84BF0FB6F894A89580916000B8
:1005C000886180936000109260000FBEE0E0F8E365
:1005D000099511E0A0E0B1E0E6E1F5E502C0059083
:1005E0000D92AE3CB107D9F723E0AEECB1E001C00B
:1005F0001D92A736B207E1F70E94AA230C944D2A58
:100600000C9400000895089581E00895089581E014
:1006100008950C94040308950C940B031F93CF9337
:10062000DF9300D000D00F92CDB7DEB749835A8355
:100630006B833091420289819A8131111DC06623FA
:10064000B9F02223A9F00E948C1A182F682F8981F3
:100650009A810E94381A69817A81812F0F900F90B8
:100660000F900F900F90DF91CF911F910C94C303C7
:100670000E94641A182FEFCF0E948C1A69817A8128
:10068000EDCFFC01262F40815181628173818481ED
:100690000C940E03CF93DF93EC0160E00E944103C2
:1006A000BE01DF91CF910C940C030E94D01B8111ED
:1006B00002C00E94771C0C94CE050C94D0050C94BB
:1006C000060381E008950C946103CF93C82F0E9424
:1006D0005F038C2FCF910C94630308950E949F15A4
:1006E0000E946D032FEF84E39CE0215080409040F6
:1006F000E1F700C000000C94FE1D0F931F93CF93F1
:10070000DF93EC0161E00E9441038C01BE010E9475
:100710000903882359F1BE01C8010E94240F8823D0
:1007200029F1BE01C8010E94760F8823F9F0BE01AD
:10073000C8010E9499108823C9F0BE01C8010E9417
:10074000FD0D882399F08A81882339F001158CE505
:10075000180751F00E3D1C4579F0CE01DF91CF9185
:100760001F910F910C9407030E946E0380E0DF91AC
:10077000CF911F910F9108950E94771CF7CF90E0C1
:1007800080E008950895972F70E02FE0929F600D0C
:10079000711D1124FB019BE4899FE00DF11D1124C3
:1007A000EE0FFF1FE455FF4F859194910895FC01D2
:1007B000EE0FFF1FE852FE4F859194910895CF935D
:1007C000DF930E94C3030E94F404EC01811520E52D
:1007D000920708F042C0811530E4930708F0BDC0CD
:1007E000883E910528F5803E910508F09DC0883A25
:1007F000910588F4853A910508F08FC08130910504
:1008000009F492C0009709F48FC0049708F08CC0D7
:10081000D0E0C0E089C08F3B910508F489C0805CBE
:100820009109C03CD105A0F30E94D703EC017CC024
:100830008115904250F4C11581E0D80708F074C0CA
:10084000C03FD10528F3D0656FC0C11590E3D9072B
:1008500008F079C0CE019F70E7CF811525E592079A
:1008600058F5811534E5930708F0A6C0811542E5D7
:10087000940750F4C11581E5D80708F471C0DC2F46
:10088000CC27C16FD06A50C0982F969596959E013F
:1008900023703327C115D34508F07FC0C1E0D0E0F5
:1008A00002C0CC0FDD1F2A95E2F720E2929FC00123
:1008B0001124C82BD92B6FC0C11589E5D807A8F41E
:1008C000C11598E5D90708F07CC0C11526E5D20707
:1008D00008F09ECF8C2F0E948B05C82FD0E0DC2F14
:1008E000CC27CC27DF71D0621FC0C1153AE5D307F2
:1008F00008F46CC0CE0190568115904208F088CF64
:100900008D2F8F710E948B0590E0982F8827882764
:100910009F719C012C2BE901E6CFC55AD0E0C65A45
:10092000DE4FC881D0E0D064CE01DF91CF91089531
:10093000C85AD0E0CC0FDD1FC45DDE4F0990D881CE
:10094000C02DD464F1CFCE019927D3FF03C0EC01B1
:10095000D86CEACFEC01D06CE7CFDF70D06AE4CF7F
:10096000CE01E4E096958795EA95E1F783702C2F08
:1009700026952695237090E2299F90011124382B0B
:100980008C2F8370C1E0D0E002C0CC0FDD1F8A95B0
:10099000E2F7C22BD32BDC68C7CFC1E0D0E002C0A6
:1009A000CC0FDD1F2A95E2F730E2939FC00111249E
:1009B000C82BD92BDA68B8CFD82FCC27C46FD06A10
:1009C000B3CFDC2FCC27C06FD06AAECF8C2F8F7007
:1009D0000E948B0534E0D695C7953A95E1F7CF7024
:1009E0009C2FEC01D069A0CF82389105B1F1B0F411
:1009F0008133910509F475C048F48932910509F4F1
:100A000069C08A32910509F473C008958533910550
:100A100009F459C08933910501F10895833E910588
:100A2000A9F138F4803E9105F9F0823E910549F133
:100A30000895863E9105A9F1873E9105C9F1843E4E
:100A4000910519F52091590321FF1FC0809158038A
:100A500084FD14C087EE90E0089520915803237020
:100A6000A1F080EE90E008952091580320FD47C04A
:100A70003091590330FF09C024FF44C090E080E06A
:100A800004C02091580322FDF7CF08952091580308
:100A900022FD3BC03091590330FDE3CF24FFF5CF59
:100AA000EDCF2091580323FFF0CF24FDE7CFD2CF25
:100AB0002091580323FD2CC03091590331FFEECF14
:100AC00084EE90E008952091580325FFDECF89E25F
:100AD00090E008952091580325FFD7CF85E390E05B
:100AE00008952091580326FFD0CF8AE290E0089520
:100AF0002091580326FFC9CF81E390E0089589E350
:100B000090E0089583EE90E0089582EE90E00895DD
:100B100086EE90E008959091580392FF06C0282F2A
:100B200028712830F9F4877F846093FF06C0282F4E
:100B300028712831F1F4877E84612091590320FFC8
:100B400006C0382F38713830D9F4877F816021FF93
:100B500006C0282F28712831D1F4877E816194FD49
:100B6000877E0895282F24712430F9F68B7F8860C2
:100B7000DCCF282F2471243101F78B7E8861DDCFF3
:100B8000382F3171313019F78E7F8860E0CF282FF0
:100B90002171213121F78E7E8861E1CF0C9402030F
:100BA0000C940303E82FF0E0EE0FFF1FEB5EFC4F09
:100BB000808191810895089580EA8A95F1F70895DA
:100BC000CF93DF93ACE6B1E041E751E0C1E0D0E084
:100BD0008D91E82FE295EF70F0E061A18F709E019A
:100BE00001C0220F8A95EAF7922F9095962391A340
:100BF00082A1822B82A34A175B0751F7ADE5B1E0D2
:100C000061E070E08D91E82FE295EF70F0E041A196
:100C10008F709B0101C0220F8A95EAF7922F909561
:100C2000942391A382A1822B82A381E0AC36B807E2
:100C300049F710920C0310920B03109216031092B6
:100C4000150310920E0310920D03109218031092C8
:100C500017031092100310920F0310921A031092B0
:100C60001903109212031092110310921C03109298
:100C70001B03109214031092130310921E03109280
:100C80001D0385E00E94CF06DF91CF910C945503A0
:100C90008F929F92AF92BF92CF92DF92EF92FF928C
:100CA0000F931F93CF93DF938CE6E82E81E0F82E0D
:100CB0000BE013E0912CAA24A394B12CF7018191AD
:100CC0007F01C82FC295CF70D0E099A18F706501C8
:100CD00001C0CC0C8A95EAF7892F8C2989A38AA1B7
:100CE0008C2C809488218AA30E94DC05EDE5F1E03C
:100CF00050E040E030E020E06191A62FA295AF7077
:100D0000B0E090968C9190E06F7002C095958795B9
:100D10006A95E2F780FD3EC0C501042E02C0880F2F
:100D2000991F0A94E2F7282B392B4F5F5F4F4F3002
:100D3000510511F789A1882289A28AA1C82ACAA2CD
:100D4000F801808191812817390739F13183208397
:100D500081E0982A0E5F1F4FF1E7EF16F1E0FF06E2
:100D600009F0ACCF292D45E065E173E08BE093E01D
:100D70000E94D0060E945D03892DDF91CF911F91C3
:100D80000F91FF90EF90DF90CF90BF90AF909F902A
:100D90008F90089590E080E0C6CF80E0DACF08958C
:100DA000FF920F931F93CF93DF93F82E092F162FE7
:100DB000D72FC42F222349F081E08093D0010E94D5
:100DC000BF1D9093CF018093CE018091D0018823E5
:100DD000A1F08091CE019091CF010E94CB1D06978A
:100DE00060F0EF2DF02FA12FBD2F90E080E0D0E03C
:100DF0008C179D0744F01092D001DF91CF911F9185
:100E00000F91FF900895219131912D933D9301967B
:100E1000EFCFEF92FF920F931F93CF93DF93EB01EE
:100E2000E82FD11110C0442321F0F0E0EE50FD4F27
:100E3000E4916E2F7E2F8E2FDF91CF911F910F9116
:100E4000FF90EF9008950D2F10E0282F30E04423FD
:100E500029F02E503D4FF901249130E0F6E0CF9F6C
:100E6000C0011124EFEFF0E0BF010E94FC28AB01AC
:100E70008C2F90E0880F991FA5E5A49FB001A59F36
:100E8000700D1124861B970B982F990F980FBF0197
:100E9000601B710B629FD001639FB00D729FB00DFC
:100EA00011248B2F9D9FB0011124672F7727EF010D
:100EB000C61BD70BBE01629FE001639FD00D729FDE
:100EC000D00D11247F01E91AF108E09EB001E19EE6
:100ED000700DF09E700D1124672F7727E61BF70B1E
:100EE000E29F8001E39F100DF29F100D1124E12F6E
:100EF000722F4230510599F048F44115510569F0BF
:100F00004130510581F0EB2F8D2F07C04430510542
:100F100069F080F046305105B1F76E2F8DCFE22F8A
:100F20007B2F812FFACFE22F7D2FF7CFEB2F822F50
:100F3000712FF3CF7B2F822FED2FEFCF41E00C9459
:100F400009070895CF93DF93762FE901682F842F47
:100F50000E949E07798368838A83DF91CF910895E9
:100F600080911F03982F9E7F29F481708260809367
:100F70001F0308958635E8F381708465F8CF88E013
:100F800090E00C94EE29CF92DF92EF92FF926B01EA
:100F90007C010E94B007B701A60188E090E0FF90B5
:100FA000EF90DF90CF900C940C2AEFE1F3E083E018
:100FB000808311828FEF82838383148260817181A9
:100FC000828193810C94C30780911F0380FF02C02C
:100FD0008695089580E0089590912303933018F446
:100FE0009F5F90932303882351F060911F037091BA
:100FF000200380912103909122030C94C30708954C
:1010000081E00C94EC0790912303992319F09150FF
:1010100090932303882351F060911F037091200364
:1010200080912103909122030C94C307089581E0DD
:101030000C94030870E00C946D0E6091080180918F
:101040001F0380FF0AC08091070123E0829FC00137
:1010500011248C5D9C4F0C941A0880910901909189
:101060000A0123E0829FF0011124EC5DFC4F8917F7
:1010700050F71182108212828F5F3396F8CF9091D1
:101080001F0390FF14C09091090120910A0133E0E1
:10109000939FF0011124EC5DFC4F921710F00C941B
:1010A0001D088183608342839F5F3396F6CF089546
:1010B000CF93DF9300D00F92CDB7DEB790911F038F
:1010C00090FF0AC09E012F5F3F4F0E94A2074B81F5
:1010D00069818A810E943F080F900F900F90DF91E5
:1010E000CF910895CF93DF93EC01EC81F0E0E351D1
:1010F000FE4F4491EFE1F3E0628181810E94580844
:101100008C818F5F8C83DF91CF910895CF93DF9394
:10111000EC01EFE1F3E0438162818C810E94580889
:101120008C818F5F8C83DF91CF9108950F931F93F4
:10113000CF93DF9300D00F92CDB7DEB78C018091B3
:10114000D10181110AC09E012F5F3F4F4FEF6FEF1A
:101150000E94A2078A818093D101F80164816130E5
:1011600069F08091D10140E0662361F040E0623097
:1011700011F44091D10180E060E004C06091D101A0
:1011800040E080E00E943F08F801848190E00196F1
:1011900063E070E00E94102984830F900F900F90FD
:1011A000DF91CF911F910F910895AF92BF92CF928F
:1011B000DF92EF92FF920F931F93CF93DF9300D0B4
:1011C0000F92CDB7DEB7182FF62E042FE22E909196
:1011D0001F0390FF29C0E92FE695AE2FB0E0AF586E
:1011E000BE4F8C9180932B029E7F923059F59E01C9
:1011F0002F5F3F4F812F0E94A2074B8169818A8117
:101200000E943F0810932003F092210300932203D1
:10121000EE2051F060911F03709120038091210313
:10122000909122030E94C3070F900F900F90DF91BF
:10123000CF911F910F91FF90EF90DF90CF90BF90D3
:10124000AF900895823019F400912203DBCF8630ED
:1012500019F410912003D6CF8930D9F3893191F652
:10126000E9518E2F8170D82EE695F0E0E351FD4FC5
:10127000A590B490C12CBB2460910B01C61618F048
:101280000E941D08BFCF2C2D30E0A29EC001A39E5E
:10129000900DB29E900D112470E00E94FC28812FC9
:1012A000D11013C0860F40910901420F532F511DD9
:1012B0009A01220F331F240F351F2C5D3C4F402F06
:1012C0006F2D0E94A207C394D7CF861BECCFEFE10E
:1012D000F3E09181282F4381628188E0890F0C948B
:1012E000D50881E00C946709EFE1F3E09181282FA4
:1012F0004381628188EF890F0C94D50881E00C94BA
:101300007409EFE1F3E0628128E0620F08F46FEF07
:10131000282F438181810C94D50881E00C948109A8
:10132000EFE1F3E0628128E0621B08F460E0282F1F
:10133000438181810C94D50881E00C949009EFE100
:10134000F3E0438128E0420F08F44FEF282F628139
:1013500081810C94D50881E00C949F09EFE1F3E0C2
:10136000438128E0421B08F440E0282F62818181FC
:101370000C94D50881E00C94AE0920E00C94D508BB
:10138000EF92FF921F93CF93DF93EC0110E0EE24D6
:10139000EA94F12C60910B01161770F00E941D0861
:1013A0009A818C8190FF27C08F5F8C83DF91CF91D2
:1013B0001F91FF90EF90089520910901422F410F56
:1013C0005527551FCA019A01220F331F280F391FB5
:1013D0002C5D3C4F70E0C7010E941029962F8C8134
:1013E0004091220360912103199F800D11240E94D6
:1013F000A2071F5FCFCF8150D8CFBF92CF92DF928D
:10140000EF92FF920F931F93CF93DF93FC018281A2
:101410000FEF80FF01E010E080910B011817C0F082
:101420000E941D088091D301013009F051C0811143
:1014300002C080910B0181508093D301DF91CF9145
:101440001F910F91FF90EF90DF90CF90BF90089584
:10145000C0910901C12ED12CCC0DDD2DD11DCE01A5
:10146000880F991FC80FD91FCC5DDC4F19821882D5
:101470001A8234E0E32EF12CB12C8091D3018B0D34
:10148000813104F18F70082E000C990BC816D90613
:1014900091F4809122038E9DA0018F9D500D112407
:1014A00055954795559547959E01609121038091EB
:1014B00020030E94A207B00EF1E0EF1AF108E9F64E
:1014C0001F5FAACF87FFDFCF90910B01890FDBCF82
:1014D00090E0019660910B0170E00E941029ACCF62
:1014E0000F931F93CF93DF938091090190910A018D
:1014F00023E0829FF0011124EC5DFC4F891740F13D
:10150000C0E0D3E060910B01C61740F10E941D08B6
:10151000209105018091D201820F8093D201909198
:101520000601920F90930601191654F4082E000C30
:10153000990B40910B014150550B841795071CF0F6
:10154000219520930501DF91CF911F910F9108956F
:101550001182108212828F5F3396D0CF0C2F10E051
:1015600070E0C8010E94102920910901820F482FC4
:1015700050E02091D201022E000C330B021713070A
:10158000BCF020910601022E000C330B201731070E
:101590007CF08D9F900111242C5D3C4F40912203E3
:1015A00060912103809120030E94A207CF5FAACF00
:1015B000FA01EE0FFF1FE40FF51FEC5DFC4F1182E7
:1015C00010821282F3CF8F929F92AF92BF92CF92EE
:1015D000DF92EF92FF920F931F93CF93DF93EC0173
:1015E0004C81042F10E09801D8010E9454299B01DE
:1015F000AC010E946A294B015C01E0E2F0E0E01BD3
:10160000F10BA5E5B0E0AC019B010E946A296B01DA
:101610007C019F01DF010E944C299B01AC010E94CB
:1016200075299B01AC01280D391D4A1D5B1DC701A1
:10163000B6010E942429F22E822F90E039E23F1554
:1016400060F143E0249F9001112435952795122FD6
:10165000109500E085E5E82EEF1880910B01081742
:1016600058F10E941D089C8181E0992319F0903265
:1016700019F48FEF8093040180910401890F8C830A
:10168000DF91CF911F910F91FF90EF90DF90CF905E
:10169000BF90AF909F908F90089525E530E0B901FD
:1016A000681B790B9B01220F331F260F371F37FF53
:1016B000CCCF2F5F3F4FC9CF8E2D01FD8F2D2091B5
:1016C0000901622F600F7727771F9B01220F331FBD
:1016D000260F371F2C5D3C4F412F609121030E9444
:1016E000A2070F5FBACF0F931F93CF93DF93EC0145
:1016F00010E000E090910B019017110609F06CF4D6
:101700000E941D088C8190E00196817099278C833E
:10171000DF91CF911F910F91089520910901A801A8
:10172000420F511D9A01220F331F240F351F2C5DCC
:101730003C4F4C8160912103809120039695901736
:10174000110651F04CF0442349F0409122030E94CD
:10175000A2070F5F1F4FCECF4423B9F340E0F7CF6E
:101760008F929F92AF92BF92CF92DF92EF92FF92B1
:101770000F931F93CF93DF93FC01B280948081E09D
:10178000848300E015E05BE4A52E88248394EE2496
:10179000EA94F12C7BE4C72ED12C80910B01081721
:1017A00070F0DF91CF911F910F91FF90EF90DF903C
:1017B000CF90BF90AF909F908F900C941D08C02F3A
:1017C000D0E01C9FF0011D9FF00D1124EC52FE4F44
:1017D00091101CC01382128220910901CE01820F48
:1017E000911D9C01220F331F280F391F2C5D3C4F88
:1017F0001C9FF0011D9FF00D1124EC52FE4F428101
:10180000618180810E94A2070F5FC7CF23812223BD
:1018100079F12150238334818A2D821B311101C03B
:10182000822F1C9FF0011D9FF00D1124EC52FE4FE2
:1018300090912203899FC0011124B6010E94FC28C7
:101840006283211104C0332311F01482A38222E0A9
:101850002B1510F21C9FF0011D9FF00D1124EC526E
:10186000FE4F809120038083809121038183B4CF38
:101870000E94C929823091400CF0AECF82E08B15D6
:1018800030F50E94C929B7010E9410291C9FF00160
:101890001D9FF00D1124EC52FE4F808322E02B158A
:1018A000C8F40E94C929209121032695622F70E077
:1018B0000E941029280F1C9FF0011D9FF00D11247C
:1018C000EC52FE4F21831282A382848285CF8091C5
:1018D0002003DCCF20912103EECFEFE1F3E0808104
:1018E0008E7F808360817181828193810E94C30792
:1018F00010922C022FEF80E792E021508040904020
:10190000E1F700C000000C941D0860911F0366956C
:1019100070E04BE050E08CE091E00E94D929892BE7
:1019200019F481E080932C020E94BF1D9093250240
:1019300080932402089590911F0390FF35C0917009
:10194000811128C0926090931F03662351F060912B
:101950001F037091200380912103909122030E9424
:10196000C30760911F03669570E04BE050E08CE088
:1019700091E00E94D929892BA1F010922C0281E0DC
:1019800080932702409122036091210380912003DC
:101990000C94BD098B3210F09465D5CF880F982B2D
:1019A000D2CF0E94850CEBCF0895682F90911F0332
:1019B000969581E0890F8B3208F081E00C949B0CA6
:1019C00081E00C94D50C682F90911F0396958FEFB2
:1019D000890F09F48AE20C949B0C81E00C94E30CCF
:1019E00061E00C949B0CEFE1F3E0808181608083E7
:1019F00086950C94F00C80911F0380FD0C946D0C67
:101A00000C94F30C60E00C949B0C80912A028111E1
:101A10002EC00E94D01B811104C00E94771C0E941E
:101A2000D5070E94BF0760931F0370932003809324
:101A30002103909322036E7F61F40E94D5070E94D8
:101A4000BF0760931F03709320038093210390933B
:101A500022030E94B00710922C0280911F0380FF86
:101A600003C086950E94020D81E080932A020895AA
:101A70000F931F93CF93DF9380912C02882309F457
:101A80009DC080912B02E0911F03E695E81BE09337
:101A900026028230C9F5F0E0E751FE4FE491CE2FE7
:101AA000D0E002E718E080912702882389F01092A5
:101AB00027020E94BF1D9E0120953095820F931F23
:101AC00090932502809324021092290210922802FA
:101AD00080912402909125020E94CB1D8C179D07B6
:101AE00008F46CC0E0912402F0912502CE0FDF1FB4
:101AF000D0932502C093240284E292E0F801DF91A2
:101B0000CF911F910F910994863049F4F0E0EA518A
:101B1000FE4FE491CE2FD0E006E818E0C4CF893024
:101B200051F4E695F0E0ED51FE4FE491CE2FD0E078
:101B300000EC19E0B8CF8F3051F4E695F0E0E052B8
:101B4000FE4FE491CE2FD0E00DEF19E0ACCF853100
:101B500049F4F0E0E352FE4FE491CE2FD0E000E7ED
:101B60001AE0A1CFC8E2D0E003EE1AE0883109F410
:101B70009ACF833239F4EBEDF1E0C591D49106E9C7
:101B800018E091CFC4EFD1E003E71BE0843209F401
:101B90008ACFC0EDD7E001EA17E0853209F083CFA4
:101BA0008E2F63E00E94F028E92FF0E0E852FE4F0C
:101BB000E491CE2FD0E000EB1BE075CFDF91CF9109
:101BC0001F910F910895FA01811101C0FB01099441
:101BD000CF93DF93C82FD62F0E94E4078C1740F0D5
:101BE0000E94E4078D1720F4DF91CF910C94E00C54
:101BF0008C2FDF91CF910C94F00C0F931F93CF9308
:101C00008C01FB01C281CC2309F465C00E94211B19
:101C10008272F801E25CFC45E431F10538F4E15BE5
:101C2000F54D0C9446290E94FB0CC0E08C2FCF91FF
:101C30001F910F9108954DEE5CE060EE7CE00E94F4
:101C4000E30DF3CF40EE5CE06DEE7CE0F8CF4EE7C5
:101C500059E061E779E0F3CF41E759E06EE779E0D9
:101C6000EECF4CE959E06DE879E0E9CF4DE859E075
:101C70006CE979E0E4CF4AEB59E06BEA79E0DFCF39
:101C80004BEA59E06AEB79E0DACF47E158E060E0EF
:101C900078E0D5CF40E058E067E178E0D0CF81E050
:101CA0000E94F00CC2CF65E082E00E94E80DBDCF3B
:101CB00068E086E0FACF6EE089E0F7CF64E18FE07C
:101CC000F4CF67E185E1F1CF88E1EACF62E289E113
:101CD000ECCF83E2E5CFC1E0A9CF279A45B14F779A
:101CE00055B15068EFB7F8949B01220F331F260FB0
:101CF000371F280F391F2817390741F4EFBF8FE529
:101D000094E00197F1F700C000000895DC016D91A7
:101D1000CD0178E055B9000000C067FF45B9660FF6
:101D2000000000C000C000C045B900C07A9591F71E
:101D3000E2CFAF92BF92CF92DF92EF92FF920F93DA
:101D40001F93CF93DF937C015B01C42FD22FFC0143
:101D500082818823F9F040932F020E94BF1D909347
:101D60002E0280932D0280E28C0F883008F061C033
:101D7000C77081E001C0880FCA95EAF7DF91CF9163
:101D80001F910F91FF90EF90DF90CF90BF90AF9099
:101D90000C94231310912F02141340C080912D0234
:101DA00090912E020E94CB1D6C01B701C5010E94CB
:101DB0001518C816D90690F5C0E2CD0F1D17B9F059
:101DC00080E2810F883040F4177081E001C0880FF5
:101DD0001A95EAF70E942A13C83048F481E09D2F33
:101DE000977001C0880F9A95EAF70E942313802FFD
:101DF0000E941013C830E8F4D77081E001C0880F4A
:101E0000DA95EAF7DF91CF911F910F91FF90EF9054
:101E1000DF90CF90BF90AF900C942A1380E28C0F8C
:101E2000883038F4C77081E001C0880FCA95EAF79E
:101E3000E9CFDF91CF911F910F91FF90EF90DF904D
:101E4000CF90BF90AF9008950F939C01CB01233F9B
:101E50004CE5340759F1A8F4283DFCE53F0701F1B2
:101E6000293D4CE53407D1F1273D3C4591F406E28C
:101E700021EE41EE67ED7CE50E94990E80E00F9126
:101E80000895253FFCE53F07E9F0B0F0263F3C45CB
:101E9000F9F0FC018281882339F110922F02EFCFF3
:101EA00007E225EE45EE68ED7CE5E6CF06E221EEA1
:101EB00040EE63EF7CE5E0CF07E225EE44EE64EF11
:101EC0007CE5DACF06E221EE42EE65EF7CE5D4CF89
:101ED00007E225EE46EE66EF7CE5CECF08E221E094
:101EE00045EE69ED7CE5C8CF81E0C9CFCF93DF93A4
:101EF000EC01FB018281882309F419C1C230FCE5A1
:101F0000DF07C0F1C6319CE5D90730F09E012A5F9A
:101F10003C452930310570F50E94ED1B9093590323
:101F200080935803C031ECE5DE0709F4CFC008F018
:101F30005BC0C8308CE5D80709F4B6C088F5C4305A
:101F4000ECE5DE0709F4A8C0C0F4C2308CE5D80780
:101F500009F49CC0809158038260C330DC4509F4C9
:101F600098C080915803909159030E94FB1B0E94D6
:101F70009F1580E0DF91CF91089580915803806193
:101F8000C630ECE5DE0709F484C080915803886010
:101F9000C730DC4508F47DC080915803806279C069
:101FA000CC308CE5D80709F489C070F480915803CF
:101FB0008C60CA30ECE5DE0709F46BC008F478C029
:101FC000809158038E7F65C0CE308CE5D80709F428
:101FD00079C0809158038B7FCF30DC4508F459C01D
:101FE000809158038F7E55C0CB3FECE5DE0709F4A6
:101FF00057C030F5C3318CE5D80709F46FC078F4C9
:10200000C131ECE5DE0709F465C0C231DC4509F0F9
:10201000A8CF0E949F15809158038F773AC0C53191
:102020008CE5D80709F462C008F476C080915903A2
:102030008160CA3FDC4509F094CF8093590391CF6A
:10204000CF3FFCE5DF0709F44DC088F480915903C8
:102050008D7FCD3F9CE5D90781F3809159038E7F19
:10206000CE3FDC4550F3809159038360E6CFC13009
:10207000FDE5DF0709F459C008F444C080E0C23030
:10208000DD4509F06ECF0E94791C6BCF809158031B
:1020900081608093580365CF809158038460F9CFA5
:1020A000809159038260C9CF809158038064F1CF39
:1020B0000E949F15809158038068EBCF8091580350
:1020C0008D7FE7CF80915803877FE3CF80915803BE
:1020D0008F7DDFCF809158038F7BDBCF80915803BA
:1020E000837FD7CF809159038C7FA7CF80915803EE
:1020F00082FB992790F921E0922790FB82F990FBCF
:1021000083F9C7CF80915903982F909591708E7F56
:10211000892B90FB81F991CF0E949F1590915803D4
:10212000892F97FB87F98058B4CF81E0ACCF81E04D
:1021300021CFCF93DF93EB0186319C4511F50E94AF
:10214000211B9A81992399F08A7A91E009F490E011
:1021500090933002811109C089E20E94FC1A0E940A
:102160006D1B80E0DF91CF91089585E3F6CF8091DC
:102170003002811104C089E20E94031BF0CF85E385
:10218000FBCF81E0EFCF9093360280933502089524
:10219000E0913502F0913602309721F00190F08104
:1021A000E02D099480E00895E0913502F091360227
:1021B000309799F020912B01222359F02091580358
:1021C00027FF07C0DC012C9111962C93119725E075
:1021D0002C930280F381E02D09940895E09135025B
:1021E000F0913602309739F022E0DC012C93048024
:1021F000F581E02D09940895209133023091340245
:102200002817390771F09093340280933302E091DC
:102210003502F0913602309721F00680F781E02DEB
:10222000099408952091310230913202281739071C
:1022300071F09093320280933102E0913502F09177
:102240003602309721F00084F185E02D099408953D
:1022500085B7806885BF85B7806885BF0895089574
:1022600008950C942F1108950C9433110E94281195
:102270000E9430110C94311181E008950C943C11AE
:102280000E94B61D0E94E0050E946D1E0E94050D71
:102290000C9434119F92AF92BF92CF92DF92EF9243
:1022A000FF920F931F93CF93DF93CDB7DEB72A979B
:1022B0000FB6F894DEBF0FBECDBF0E9448060E9445
:1022C0003E11882309F472C058E3A52E52E0B52EC2
:1022D00010E000E0902E802F0E94D2056C01F501E5
:1022E000E190F1905F01E816F90609F459C0809178
:1022F000DA0281FD0E94DB0597012C253D2580E057
:10230000EE24E394F12CA9014E215F21452B09F421
:1023100041C08E839F82CE20DF2081E0CD2809F44A
:1023200080E088870E94BF1D8160782F9A87898707
:102330004E815F8168858A850E94F911000F111F07
:10234000F801E85CFD4F80819181E826F926F18251
:10235000E0820E94380D0E941B210E94C8109091BB
:1023600037028917A1F10E94C810809337022A967C
:102370000FB6F894DEBF0FBECDBFDF91CF911F9196
:102380000F91FF90EF90DF90CF90BF90AF909F9014
:102390000C9465038F5FEE0CFF1C8F3009F0B3CFF8
:1023A0000F5F1F4F0530110509F094CF8FEF898320
:1023B0008A831B820E94BF1D8160782F9D838C833E
:1023C00049815A816B818D810E94F911C2CF2A9671
:1023D0000FB6F894DEBF0FBECDBFDF91CF911F9136
:1023E0000F91FF90EF90DF90CF90BF90AF909F90B4
:1023F0000895CF93DF93CDB7DEB72B970FB6F89440
:10240000DEBF0FBECDBF4F83588769877A878B8722
:102410001E821D8285E0FE013796DE011196019035
:102420000D928A95E1F749815A816B817C818D817A
:102430009E812B960FB6F894DEBF0FBECDBFDF9105
:10244000CF910C941818FC01808191810C94CE1AC4
:10245000CF93C82F882309F48BC08238C1F40E941F
:10246000C81081FD85C089E30E94FC1A0E946D1B83
:102470002FEF81EE94E0215080409040E1F700C0C2
:10248000000089E30E94031BCF910C946D1B8338DD
:10249000A1F40E94C81080FD6BC083E50E94FC1A65
:1024A0000E946D1B2FEF81EE94E021508040904000
:1024B000E1F700C0000083E5E5CF8438A1F40E9475
:1024C000C81082FD55C087E40E94FC1A0E946D1B53
:1024D0002FEF81EE94E0215080409040E1F700C062
:1024E000000087E4CFCF8CEF8C0F813A90F46C2FF3
:1024F00080911701909118010E94921C882329F065
:102500008C2F0E94031B0E946D1B8C2F0E94FC1AB3
:10251000BBCF80E28C0F883048F4C77081E001C0E7
:10252000880FCA95EAF70E94241BAECFEBE5EC0FAB
:10253000E33040F4F0E0E653FE4F808190E0CF912D
:102540000C94FC10E8E5EC0FE73150F4F0E0EE0FEE
:10255000FF1FE456FE4F80819181CF910C941211A0
:10256000C03F30F08C2F0E941520CF910C94002199
:10257000CF910895882309F452C0823871F40E94E3
:10258000C81081FF4CC089E30E94FC1A0E946D1B99
:1025900089E30E94031B0C946D1B833859F40E943D
:1025A000C81080FF3CC083E50E94FC1A0E946D1B8E
:1025B00083E5EFCF843859F40E94C81082FF2FC002
:1025C00087E40E94FC1A0E946D1B87E4E2CF9CEF17
:1025D000980F913AF0F290E2980F983050F487708B
:1025E00091E001C0990F8A95EAF7892F0E942A1B72
:1025F000D2CF9BE5980F933020F490E080E00C94CC
:10260000FC1098E5980F973120F490E080E00C944E
:102610001211803F20F00E947D200C94002108952B
:10262000CF93C82F0E942812C93349F42FEF87EEA9
:1026300093E0215080409040E1F700C000008C2FD3
:10264000CF910C94BA12882321F00E94241B0C9481
:102650006D1B0895882321F00E942A1B0C946D1B8A
:102660000895BF92CF92DF92EF92FF920F931F9344
:10267000CF93DF936C01D62FC72FFC010581029504
:102680000F70128111110E94411B0E941A1BE82E2B
:10269000882391F01123D1F08C2F807F803421F09A
:1026A00080E28D0F883090F082E00E94B81B0E947B
:1026B0001A1B91E0E82EE926BC2EB2949FE0B922C5
:1026C000EB2DF0E0ED59F54D0C944629E12CF4CFBB
:1026D0000C2F0F70C07F11F00295007F1123A9F01D
:1026E000002359F080E28D0F883010F0D11109C01D
:1026F000802F0E94241B0E946D1B8D2F0E94281288
:1027000014C0802F0E94341BF6CF8D2F0E94BA1266
:10271000002359F080E28D0F883010F0D1112CC0C9
:10272000802F0E942A1B0E946D1B2B2D2850330BDB
:102730002430310520F40E94C8100E946503EE2069
:1027400009F49EC10E94161B80FD9AC1F6011282F7
:102750000E94101B0E949C19C6010E9461150E94D4
:10276000101BDF91CF911F910F91FF90EF90DF90A1
:10277000CF90BF900C94BD19802F0E943A1BD3CFED
:10278000FC2FFF70FF2EC07FC03219F0F29480EF53
:10279000F822DD2369F0D13049F1112391F10023B2
:1027A00051F1F601858180FFA8CF8F70858323C00A
:1027B000112381F0011106C00E94541B8F290E9431
:1027C0002313B3CF0130C1F70E94541B8F290E94FD
:1027D0005A1BABCF011106C00E94631B8F2D0E94B4
:1027E0002A13A3CF013009F4A0CFF6CF112329F08B
:1027F000063008F09ACF8F2DE2CF053008F095CF44
:10280000EDCF002359F3D93349F4FFEF27EE33E03E
:10281000F15020403040E1F700C000008D2F0E94B1
:10282000BA1283CF8C2F86958695837069F081309C
:1028300009F07BCF8D2F9C2F9370111102C090E077
:1028400080E00E94121171CF8D2F9C2F9370111177
:1028500002C090E080E00E94FC1067CF8D2F112312
:1028600029F00E9415200E9400215FCF0E947D2048
:10287000FACF8C2F837009F041C0111156CF4D2F24
:10288000429546954770440F440F0D2F0F7010E08E
:1028900030E020E0042E04C0000F111F221F331F60
:1028A0000A94D2F760E070E0CB01D4FF0FC06FE074
:1028B00070E080E090E004C0660F771F881F991FCA
:1028C0004A95D2F76095709580959095C695C69576
:1028D000C370602B712B822B932BC23049F058F4BC
:1028E000C13019F00E944E1920CF0E943C191DCF13
:1028F0000E9460191ACF0E943A1917CF86951123AA
:1029000011F08C2F8170882309F40FCF4D2F429541
:1029100046954770440F440F0D2F0F7010E030E0C4
:1029200020E0042E04C0000F111F221F331F0A9441
:10293000D2F760E070E0CB01D4FF0FC06FE070E031
:1029400080E090E004C0660F771F881F991F4A95AA
:10295000D2F76095709580959095C695C695C37091
:10296000602B712B822B932BC23049F058F4C1306D
:1029700019F00E94131AD9CE0E94011AD6CE0E94D5
:10298000251AD3CE0E947619D0CECF70112329F00C
:102990008C2F0E949C198D2F12CF8D2F0E942A13ED
:1029A0008C2F0E94BD19C1CED23F89F160F4D03F77
:1029B000C9F0D13F29F1112309F442C001119DCE84
:1029C0008C2F8F7121C0D33F39F1D43FA1F7112350
:1029D00069F1CF718C2F0E949C1963E08C2F0E94AB
:1029E000A31BA3CE112341F0053008F09ECE8C2FFF
:1029F0008F710E94E01999CE063008F096CEF7CF7D
:102A00008C2F8F71112369F20E949C198ECE8C2F0E
:102A10008F711123C9F3C5CF112329F08C2F8F712A
:102A20000E94871982CE0E9482197FCE81E00E9487
:102A3000B81B023008F479CE82E00E94B81B75CE34
:102A4000002359F0D93309F0E9CE8FEF97EEE3E098
:102A500081509040E040E1F7DFCE8C2F8F71A1CF05
:102A60004C2F4F706D2FC6010E94BF030E94B218F9
:102A70005CCE4C2F4F706D2FC6010E94C20355CE05
:102A8000DF91CF911F910F91FF90EF90DF90CF904A
:102A9000BF9008950F931F93CF93DF93EC0168814C
:102AA00079818A810E94D81A8C010E94371A0E946B
:102AB0003919B801CE01DF91CF911F910F910C947C
:102AC0003113CF93DF93EC018B819C81892B29F00B
:102AD0008881998189238F3F59F4DF91CF9108959F
:102AE000CE010E944A15CE01DF91CF910C944A038A
:102AF000CE010E947D038111F3CF0E941A1B88230F
:102B000061F38A81882349F382E0DF91CF910C94AD
:102B1000B81B0E94411B0E94511B0E946D1B0E940A
:102B200027220E94002190E080E00E94FC1090E0AB
:102B300080E00C9412110E940A1B0C9489150E94CB
:102B4000311B0C949B15E92FE295EF70E250EE30AB
:102B500070F4F0E0ED58F54D0C944629803F19F0E3
:102B600020F4883E20F481E00895843FE1F380E082
:102B70000895883EC0F3813FD1F7F5CF93FB8827B6
:102B800080F908950E94CE1A0C94A315CF93DF9379
:102B900000D000D00F92CDB7DEB70F900F900F90FE
:102BA0000F900F90DF91CF910895CF93DF9300D0D6
:102BB00000D000D0CDB7DEB726960FB6F894DEBFB2
:102BC0000FBECDBFDF91CF9108951F93CF93DF93B9
:102BD000C091430216E0809144028C1304C0DF913F
:102BE000CF911F910895D0E01C9FF0011D9FF00D23
:102BF0001124EB5BFD4F408151816281738184819F
:102C000095810E94D5152196C770E5CF4091750238
:102C100050917602609177027091780280917902EA
:102C200090917A020C94D5151F93CF93DF938091E6
:102C30007A02807FA9F480917702882389F08091BD
:102C40004302C09144026091750270917602A09196
:102C50007802B0917902D62FD72316E0C81304C0AA
:102C6000DF91CF911F91089590E0109711F0DF3F11
:102C700019F401968770F2CF189F9001199F300DBB
:102C80001124F901EB5BFD4F41814713F2CF4081E5
:102C90004613EFCF42814111ECCF438154814A1B4F
:102CA0005B0B483C510528F780917A028F70806158
:102CB00080937A02F901E65BFD4F80818F7080611D
:102CC000808385E792E00E946115DF91CF911F918B
:102CD0000C94E515AF92BF92CF92DF92EF92FF92E4
:102CE0000F931F93CF93DF93CDB7DEB761970FB6E6
:102CF000F894DEBF0FBECDBF8C0185E0F801DE0188
:102D00001D9601900D928A95E1F7F801408151815D
:102D1000E28085E7C82E82E0D82E6091780270911B
:102D200079026115710509F461C1909175022091D4
:102D30007602892F82238F3F09F458C1A380B48083
:102D4000F0907702F501E61BF70BFF2009F4FCC0B9
:102D500080917A02382F307FE83CF10508F0B2C04C
:102D6000311179C0FE2C251323C0941321C0E1102A
:102D70001FC08F70806180937A020E940616C60180
:102D80000E94611580917A02F80185838F2D6196EA
:102D90000FB6F894DEBF0FBECDBFDF91CF911F916C
:102DA0000F91FF90EF90DF90CF90BF90AF9008957C
:102DB000AB2829F0842F85238F3F09F033C180E0B1
:102DC000F82FF170DF2E80FF3CC0809143022091EC
:102DD000440236E0821315C04D875E878D859E853F
:102DE0000E94CE1A292F22952F702230F0F0243025
:102DF00018F59F70F1F0F8019581907FD1F4D12CF6
:102E00001EC090E0389FF001399FF00D1124EB5B5C
:102E1000FD4F6181651306C06081641303C0628148
:102E20006E110FC001968770D5CF9F7011F0882367
:102E300031F3805E883018F3C8010E946115FD2CC3
:102E4000A5CFEE2009F4A2CF80917A028160809311
:102E50007A02F12C9BCF251306C0941304C0F8010D
:102E6000EE2009F48DC04D875E878D859E850E947A
:102E7000C215882319F1EE2009F180917A0280327F
:102E800070F0209175023091760238872F83198671
:102E9000BB86AA868C87CE0107960E94611586E0C4
:102EA000F801A5E7B2E001900D928A95E1F70E9442
:102EB00014160E940616FF24F39468CFC8010E94DE
:102EC0006115F9CF311113C07A2DB98AA88A6E2DF8
:102ED00089890E94C61585E792E00E94611586E007
:102EE000F60111928A95E9F70E940616B2CF2513D2
:102EF0000FC094130DC0E1100BC0F8018583C80109
:102F00000E94611586E0F60111928A95E9F73ECF9D
:102F10004D875E878D859E850E94C215882371F23C
:102F2000EE2061F280917A02803208F4B8CF2091CD
:102F30007502309176023A8329831B82BD82AC826E
:102F40008E83CE010196A9CFE83CF10508F041C07F
:102F5000FE2CEE2009F4B2CF25132AC0941328C00A
:102F600080917A0280FD1BC0982F907FC1F0F801FC
:102F70008583903F31F0982F907F905F8F70892BE1
:102F80008583C8010E94611586E0F801A5E7B2E0DB
:102F900001900D928A95E1F70E940616F7CE86E021
:102FA000F801A5E7B2E001900D928A95E1F7EECE27
:102FB0004D875E878D859E850E94C21581116FCFDA
:102FC00080917A02816080937A02C8010E94611523
:102FD000DDCE7A2DB98AA88A6E2D89890E94C61500
:102FE00086E0F60111928A95E9F7D6CFEE2009F432
:102FF00065CF4D875E878D859E850E94C215F82E10
:10300000882309F45BCF86E0F801A5E7B2E00190E0
:103010000D928A95E1F785E792E00E9423120E94C3
:103020001416BACF81E08E25CBCE88EC90E00895BF
:103030001F93CF93DF93CDB7DEB72C970FB6F894DD
:10304000DEBF0FBECDBF4F83588769877A878B87D6
:103050009C87CE0107960E946A16882369F08A85AC
:103060009B85892B39F04F815885842F85238F3F8D
:1030700009F071C016E05FC086E0FE013796DE0100
:10308000119601900D928A95E1F78A859B85892B8F
:1030900089F38F81988589238F3F61F320914402C2
:1030A00030E0C90101968770992740914302481783
:1030B000190671F40E949F15109244021092430267
:1030C00086E0E5E7F2E0DF011D928A95E9F7D2CFCD
:1030D00096E0929FD001939FB00D1124AB5BBD4F42
:1030E000FE01319601900D929A95E1F7809344028A
:1030F0000E94E515BFCF819FC00111248B5B9D4FBE
:103100000E946A168823E9F0E09143021E9FF001B5
:103110001124EB5BFD4F4081518162817381848179
:1031200095810E94D5158091430290E001968770A9
:10313000992780934302809143029091440289131E
:10314000DACF2C960FB6F894DEBF0FBECDBFDF915D
:10315000CF911F91089569857A858B859C850E9402
:10316000D51588CFEF92FF920F931F93CF93DF93E4
:103170008C01892B81F0F12CEE24E394E801219657
:10318000F8018491843770F4843008F05FC0813096
:10319000B1F08230A1F1DF91CF911F910F91FF909B
:1031A000EF900895853709F44CC008F43DC09CE7C2
:1031B000980F903780F78F770E94BA1249C00E5F40
:1031C0001F4FFE01849190E2980F983060F4877051
:1031D000FE2D01C0FF0F8A95EAF78F2F0E94441B36
:1031E0000E946D1B02C00E9428128F2D815030F268
:1031F000EFE9FFE03197F1F700C00000F7CF0E5F75
:103200001F4FFE01849190E2980F983050F4877020
:10321000FE2D01C0FF0F8A95EAF78F2F0E944A1BEF
:10322000DFCF0E94BA12E1CF0E5F1F4FFE01C491A3
:10323000C150D8F28FE99FE00197F1F700C000007C
:10324000F7CF0E5F1F4FFE01F490CFCF0E942812E0
:103250008E01CBCF08950C942A190E942B196093EC
:10326000B1027093B2028093B3029093B4020C94B3
:10327000891508950C942D190F931F930091B10295
:103280001091B2022091B3023091B402602B712BE5
:10329000822B932B1F910F910C942D190F931F9339
:1032A0000091B1021091B2022091B3023091B402A8
:1032B00060237123822393231F910F910C942D1966
:1032C0000F931F930091B1021091B2022091B302AB
:1032D0003091B40260277127822793271F910F91A5
:1032E0000C942D190C942A190C9472190E947419BB
:1032F0006093AD027093AE028093AF029093B002E0
:103300000C94891560E070E0CB010C9476190F9352
:103310001F9341E050E060E070E08A019B0104C02F
:10332000000F111F221F331F8A95D2F7C901B80160
:103330001F910F910C9476190F931F9341E050E069
:1033400060E070E004C0440F551F661F771F8A9528
:10335000D2F78091AD029091AE02A091AF02B091F0
:10336000B0028A019B01082B192B2A2B3B2BC90188
:10337000B8011F910F910C9476190F931F9341E0A0
:1033800050E060E070E004C0440F551F661F771FD7
:103390008A95D2F7CB01BA0160957095809590958A
:1033A0000091AD021091AE022091AF023091B002B7
:1033B00060237123822393231F910F910C9476191C
:1033C0000F931F9341E050E060E070E004C0440FB1
:1033D000551F661F771F8A95D2F78091AD02909195
:1033E000AE02A091AF02B091B0028A019B01082702
:1033F00019272A273B27C901B8011F910F910C9467
:1034000076190F931F930091AD021091AE02209197
:10341000AF023091B002602B712B822B932B1F9146
:103420000F910C9476190F931F930091AD02109198
:10343000AE022091AF023091B0026023712382234B
:1034400093231F910F910C9476190F931F93009162
:10345000AD021091AE022091AF023091B002602710
:103460007127822793271F910F910C947619089545
:103470002FE0929F800D1124982F977041E001C09A
:10348000440F9A95EAF786958695869595E0899FEB
:10349000F0011124E558FD4F90E080E070E051917B
:1034A000DF0111979B01082E02C0369527950A94DB
:1034B000E2F7217021952527242325272C930196B7
:1034C0008530910561F708952FE0929F800D1124BA
:1034D000982F977086958695869525E0829FF001B6
:1034E0001124E558FD4F50E040E080E0219130E0AC
:1034F000092E02C0369527950A94E2F721703327EA
:10350000042E01C0220F0A94EAF7822B4F5F5F4F0F
:103510004530510559F70895BF92CF92DF92EF924F
:10352000FF920F931F93CF93DF938C01C090AD0256
:10353000D090AE02E090AF02F090B0028091B10264
:103540009091B202A091B302B091B402C82AD92AD4
:10355000EA2AFB2ACFE1D0E0BC2ED701C6010C2E0F
:1035600004C0B695A795979587950A94D2F780FDE4
:103570000EC0219788F7B12C8B2DDF91CF911F9131
:103580000F91FF90EF90DF90CF90BF900895B8011A
:103590008C2F0E94DF03019761F3EECFCF93DF936F
:1035A000EC010E948C1ABE01DF91CF910C94DF03D5
:1035B0001F93CF93DF93EB0190914202992331F057
:1035C000CB01DF91CF911F910C94CE1A882379F013
:1035D000CB010E948C1A182F682FCE010E94381A36
:1035E000BE01812FDF91CF911F910C94DF03CB019E
:1035F0000E94641A182FF4CF682F809117019091C0
:1036000018010C94121D682F8091170190911801D8
:103610000C941D1D80911701909118010C94281D88
:103620008091B50285958595859508958091B5021F
:10363000877008959091B502977081E009F480E059
:1036400008958091D90208959091D902892B809391
:10365000D902089580959091D90298239093D90228
:1036600008951092D90208959091D802892B8093E1
:10367000D802089580959091D80298239093D8020B
:1036800008951092D80208959091D702892B8093C3
:10369000D702089580959091D70298239093D702EE
:1036A00008951092D70208958091B6020895089562
:1036B0000C94571B9091B602981721F08093B60294
:1036C0000C94581B08958091B602882329F010921B
:1036D000B60280E00C94581B0895E0911701F09118
:1036E00018018091D9028083E0911701F0911801AF
:1036F00080819091D802892B8083E0911701F0910D
:10370000180180819091D702892B80839091B60215
:10371000992381F0E0911701F09118018081892BA4
:10372000808380911701909118010E947E1C811165
:103730000E94631B80911701909118010C94D41082
:1037400008950C94A01B98E0899F90011124622B8E
:103750006093B5020E949C198091B502859585956C
:1037600085950C94A11B1092B50280E00C94A11BCE
:103770009091B502809589238093B502282F2770F8
:1037800071F4282F082E000C330B9217130639F012
:103790008595859585950E94BD190C94B31B089558
:1037A00090E080E00E94F42921E08C3E9E4F09F0D9
:1037B00020E0822F089582E090E00C94E629682FA3
:1037C00082E090E00C94FA2983E090E00C94E629E2
:1037D000682F83E090E00C94FA29CF9384E090E086
:1037E0000E94E629C82F81E290E00E94E629982FE6
:1037F0008C2FCF910895CF93C92F682F84E090E04C
:103800000E94FA296C2F81E290E0CF910C94FA2962
:10381000AB01BC018FE090E00C940C2AAB01BC0121
:1038200083E190E00C940C2A60E070E0CB010C94F2
:103830000E1C60E070E0CB010E94081C0C94141C6C
:103840006CEE7EEF90E080E00E94182A60E082E05B
:1038500090E00E94FA2960E083E090E00E94FA295B
:103860001092B1021092B2021092B3021092B402FE
:1038700060E084E090E00E94FA2960E081E290E05C
:103880000E94FA2960E085E090E00E94FA2960E059
:1038900086E090E00E94FA296FEF87E090E00E94B6
:1038A000FA2940E050E0BA0188E090E00E940C2A3A
:1038B00060E08DE090E00E94FA2940E050E0BA011B
:1038C00088E190E00E940C2A60E087E190E00E948D
:1038D000FA2940E050E0BA018CE190E00E940C2A05
:1038E00060E080E290E00E94FA290C94191C0C948C
:1038F000201C682F8EE090E00C94FA29FC0132968F
:1039000080912B01882321F0809158039EE187FF4D
:1039100096E080E0915008F4089521912223D1F39C
:103920008F5FF8CF662301F120912B012223F1F064
:103930002091580327FF1AC0462F46954695469575
:103940004E3190F4677021E030E002C0220F331F47
:103950006A95E2F7840F911DFC01828190E0282393
:10396000392381E0232B69F480E00895FC0132962D
:1039700008962191261721F0E817F907D1F7F4CF1F
:1039800081E008959C01FC0132969FEF80E0419117
:10399000461751F09F3F19F4411101C0982F8F5FD6
:1039A0008630A9F79F3F09F40895290F311D97FD2F
:1039B0003A95F90162830895FC01329608962191A7
:1039C000261303C0DF0111971C92E817F907B9F716
:1039D0000895E62FE695E695E695EE3168F4E80F52
:1039E000F92FF11D677021E030E001C0220F6A95C8
:1039F000EAF78281822B82830895E62FE695E69589
:103A0000E695EE3170F4E80FF92FF11D677021E0B3
:103A100030E001C0220F6A95EAF7209582812823C1
:103A20002283089520912B01222329F0209158030D
:103A300027FD0C94E91C0C94C21C20912B0122231D
:103A400029F02091580327FD0C94FD1C0C94DC1CDC
:103A5000FC01329680912B01882351F0809158030C
:103A600087FF06C08EE1DF011D928A95E9F7089570
:103A700086E0F9CF089508950C943B1D0E943C1DEB
:103A800080915E03843049F11092DB0288E190E07E
:103A900020E40FB6F894A895809360000FBE2093A1
:103AA000600080E00E9465030E943C1D83B7817F17
:103AB000846083BF83B7816083BF7894889583B720
:103AC0008E7F83BF0FB6F894A895809160008861BF
:103AD00080936000109260000FBE08950895CF9308
:103AE0000E943A1D0E9448060E946E1DC0E08C2F65
:103AF0000E94D205892B31F4CF5FC530C1F780E039
:103B0000CF91089581E0FCCF08950C94841D0E940C
:103B10009F150E94C8100E9465030C94851D1F927A
:103B20001FB61F9211248F939F93AF93BF938091E1
:103B3000DB02811113C08091540390915503A09131
:103B40005603B09157034196A11DB11D80935403B4
:103B500090935503A0935603B0935703BF91AF9131
:103B60009F918F911F901FBE1F90189582E084BD7A
:103B700093E095BD9AEF97BD80936E0008952FB79F
:103B8000F8948091540390915503A0915603B091FD
:103B900057032FBF08959C014FB7F89480915403A9
:103BA00090915503A0915603B09157034FBF821BCC
:103BB000930B089578941F921FB61F9211248F9330
:103BC0009F93AF93BF938091540390915503A0911D
:103BD0005603B09157030196A11DB11D8093540364
:103BE00090935503A0935603B0935703BF91AF91A1
:103BF0009F918F911F901FBE1F90189581E0809319
:103C0000E00080E28093D8001092C9008FE19EE42A
:103C10000197F1F700C0000087E090EBDC01809392
:103C2000670390936803A0936903B0936A0388E1E4
:103C30009CE00FB6F894A895809360000FBE909317
:103C40006000FFCFAF92BF92CF92DF92EF92FF92D0
:103C50000F931F93CF93C0E0CC24C394D12CE82EB4
:103C6000F12C8C2F0E94D2055C0110E000E0C6010F
:103C7000002E02C0880F991F0A94E2F78A219B2127
:103C8000892B99F40F5F1F4F0F30110581F7CF5F1C
:103C9000C53039F780E0CF911F910F91FF90EF90E1
:103CA000DF90CF90BF90AF900895602F7C2F80E081
:103CB0000E94C303E816F90629F781E0ECCFCF9301
:103CC000C82F8CE20E94221E882321F08C2FCF91D6
:103CD0000C94221E80E0CF910895CF930E94D01BB8
:103CE000811102C00E94771CC5E608C00E944806E8
:103CF0008FE39CE90197F1F700C00000C150B1F7D4
:103D000089E20E945F1E81110BC18AE20E945F1E40
:103D100081110E94771C85E00E945F1E81110E9424
:103D2000FE1D0E94DB1B8093DA0287E00E945F1E6B
:103D3000882371F08BE10E945F1E882309F4CDC0B7
:103D40009091DA02892F8D7F91FF82608093DA0251
:103D50008091DA020E94DF1B0E94ED1B90935903B1
:103D60008093580380EE0E945F1E882341F090915B
:103D70005803892F8E7F90FF81608093580389E3D9
:103D80000E945F1E882341F090915803892F8D7FF8
:103D900091FF82608093580382EE0E945F1E882309
:103DA00041F090915803892F8B7F92FF846080931C
:103DB000580386EE0E945F1E882341F090915803BD
:103DC000892F877F93FF88608093580383EE0E943A
:103DD0005F1E882341F090915803892F8F7E94FFB6
:103DE00080618093580385E30E945F1E882341F021
:103DF00090915803892F8F7D95FF8062809358039F
:103E000081E30E945F1E882341F090915803892F1F
:103E10008F7B96FF80648093580381E10E945F1E30
:103E2000882341F090915803892F97FB87F9805898
:103E30008093580380915803909159030E94FB1B73
:103E400087E20E945F1EC82F8EE10E945F1E8111D3
:103E5000C2608FE10E945F1E8111C46080E20E94F7
:103E60005F1E8111C86081E20E945F1E8111C061E6
:103E700082E20E945F1E8111C06283E20E945F1E87
:103E80008111C06484E20E945F1E882309F442C04D
:103E9000C0688C2F0E94E81B6C2F70E090E080E0DF
:103EA0000E943A196091AD027091AE028091AF020A
:103EB0009091B0020E9474198FE00E945F1E8823C7
:103EC00019F081E00E94791C85E10E945F1E882321
:103ED00039F180E0CF910C94791C8EE00E945F1E36
:103EE000882339F09091DA02892F8B7F92FF8460CA
:103EF0002DCF80E10E945F1E9091DA02882329F085
:103F0000892F877F93FF886021CF892F8E7F90FF35
:103F100081601CCFC111BDCF0E94E41B682FBDCFB3
:103F2000CF9108958091E20280FF12C060911E013E
:103F300085E0689FB0011124759567957595679523
:103F400060387105A8F561157105A1F1862F0895F6
:103F500081FF09C060911E0185E0689FB0011124B6
:103F600075956795EDCF60911E0182FD0AC0809125
:103F7000E1028823D1F090911D0160911E01891703
:103F800028F085E0689FB0011124DACF869FB00148
:103F9000112485E0869F9001879F300D1124692FA1
:103FA00070E0C9010E941029CBCF65E070E0CECF50
:103FB0008FE7089581E008958091E20280FF0CC0B0
:103FC00060911A0170E07595679575956795611513
:103FD000710549F1862F089581FF06C060911A018D
:103FE00070E075956795F3CF60911A0182FD0BC063
:103FF0009091E0029923A1F06091190180911A013A
:10400000961738F0682F70E06038710500F38FE77D
:104010000895899FC001112470E00E941029F4CFF7
:1040200061E070E0D7CF81E00895803F31F40E94D5
:10403000921F81958093E6020895813F19F40E94B2
:10404000921FF8CF823F31F40E94921F8195809396
:10405000E5020895833F19F40E94921FF8CF893F2B
:1040600029F40E94DC1F8093E70208958A3F21F41F
:104070000E94DC1F8195F7CF8B3F31F40E94DC1F3B
:1040800081958093E80208958C3F19F40E94DC1F0B
:10409000F8CF843F31F48091E40281608093E402A0
:1040A0000895853F21F48091E4028260F7CF863F36
:1040B00021F48091E4028460F1CF873F21F4809164
:1040C000E4028860EBCF883F21F48091E4028061B4
:1040D000E5CF8D3F31F48091E20281608093E2026E
:1040E00008958E3F21F48091E2028260F7CF8F3FE6
:1040F000B9F78091E2028460F1CF9091E502803FB0
:1041000059F48091E60287FF0DC01092E6029111EA
:104110000BC01092E10208C0813F81F48091E60259
:1041200018169CF3992381F08091E7029091E802A0
:10413000892B09F064C01092E0020895823F49F48F
:1041400097FFF0CF1092E5028091E6028111ECCF4B
:10415000E0CF833F19F41916ACF3E4CF2091E702C6
:10416000893F29F41216F4F61092E702DBCF8A3F5A
:1041700019F427FFD7CFF8CF2091E8028B3F29F41D
:1041800027FFD0CF1092E802CDCF8C3F19F4121642
:10419000CCF3C8CF843F31F48091E4028E7F8093CA
:1041A000E402C0CF853F21F48091E4028D7FF7CFF8
:1041B000863F21F48091E4028B7FF1CF873F21F489
:1041C0008091E402877FEBCF883F21F48091E40265
:1041D0008F7EE5CF8D3F31F48091E2028E7F809318
:1041E000E202A0CF8E3F21F48091E2028D7FF7CFD3
:1041F0008F3F09F097CF8091E2028B7FF0CF089537
:104200000E94BF1D9C019091E5028091E602982BCF
:1042100021F03093DF022093DE029091E70280913B
:10422000E802982B21F03093DD022093DC0283EE2C
:1042300092E00C94EE10EF92FF920F931F93CF93A6
:10424000DF9300D000D000D0CDB7DEB786E0E3EE3C
:10425000F2E0DE01119601900D928A95E1F7E0906F
:10426000E502F090E6020091E7021091E802109258
:10427000E5021092E6021092E7021092E8028E2DFB
:104280008F2991F08091DE029091DF020E94CB1D78
:10429000AC019091E102992309F43FC080911F0184
:1042A0008417150608F447C0802F812B91F0809168
:1042B000DC029091DD020E94CB1DAC019091E002E6
:1042C000992309F477C080911B018417150608F41F
:1042D0007FC08091E5029091E602892B9091E702E0
:1042E000892B9091E802892B11F00E94002186E031
:1042F000FE013196A3EEB2E001900D928A95E1F7AE
:1043000026960FB6F894DEBF0FBECDBFDF91CF91DA
:104310001F910F91FF90EF900895209120018AE066
:10432000289F900111242417350708F0BDCF9F5F07
:104330009093E10202C09F3FD1F7EE2059F00E9416
:10434000921F9FEF1E140CF491E0899F802D112481
:104350008093E502FF2059F00E94921F9FEF1F14E7
:104360000CF491E0899F802D11248093E602309116
:10437000E502332309F498CF2091E602222309F4C1
:1043800093CF45EB3403C0011124992359F0909346
:10439000E50245EB240390011124332339F03093D7
:1043A000E60282CF81E08093E502F3CF81E0809343
:1043B000E6027ACF20911C018AE0289F9001112407
:1043C0002417350708F085CF9F5F9093E00202C065
:1043D0009F3FD1F7002359F00E94DC1F9FEF10167A
:1043E0000CF491E0899F802D11248093E702112322
:1043F00059F00E94DC1F9FEF11160CF491E0899F89
:10440000802D11248093E8023091E702332309F4D0
:1044100060CF2091E802222309F45BCF45EB3403FF
:10442000C0011124992359F09093E70245EB24032E
:1044300090011124332339F03093E8024ACF81E010
:104440008093E702F3CF81E08093E80242CF86E0D9
:10445000E3EEF2E0DF011D928A95E9F71092E102A6
:104460001092E0021092E2020895809109030895EB
:10447000CF93DF9300D00F92CDB7DEB790915E035C
:10448000943019F589837B836A8382E08093E90005
:104490008FEF9091E800815095FD06C095ED9A95BB
:1044A000F1F700008111F5CF8091E80085FF0DC084
:1044B00050E040E063E070E0CE0101960E945F248E
:1044C0008091E8008E778093E8000F900F900F9016
:1044D000DF91CF910895BC0184E00C943822BC0197
:1044E00083E00C9438229C0182E08093E9009FEFE6
:1044F0008091E800915085FD06C085ED8A95F1F721
:1045000000009111F5CF8091E80085FF0CC050E0CC
:1045100040E066E070E0C9010E945F248091E800FD
:104520008E778093E8000895CF93DF93EC0180911C
:104530002B018823B1F18091580387FF32C060E2DC
:1045400082E08093E9008FEF9091E800815095FD23
:1045500006C095ED9A95F1F700008111F5CF809195
:10456000E80085FF1BC080912B0170E050E040E027
:10457000811104C050E040E068E070E0CE010E948C
:104580005F248091E8008E778093E80080E2FE014E
:10459000A9EEB2E001900D928A95E1F7DF91CF91FB
:1045A000089568E081E0CDCF80915D03811109C05D
:1045B0000E94EF250E944C268091E2008460809347
:1045C000E200089510925D030895089508950C94F3
:1045D000871D42E061EC81E00E946B2542E261ECC4
:1045E00082E00C946B2580916003833009F45FC0F6
:1045F00030F48130C1F1823009F49BC008958A30D3
:1046000009F487C08B3009F46DC0893009F04EC0C1
:1046100080915F03813209F049C0809163039091DA
:104620006403029708F042C08091E800877F80937E
:10463000E8008091E80082FF35C09091F3008091FE
:10464000F200029729F48091F1008B7F813021F4F0
:104650008091F100809309038091E8008B7780932B
:10466000E8000C949F2580915F03813AF9F48091D2
:10467000E800877F8093E800809163039091640352
:10468000892B61F460E289EE92E070E00E94AE2432
:104690008091E8008B778093E800089560E090E0D7
:1046A00080E0F3CF80915E038111C3CF08958091A4
:1046B0005F03813AD9F78091630390916403892B5A
:1046C000A9F78091E800877F8093E8008091E80057
:1046D00080FFFCCF80912B018093F1008091E80056
:1046E0008E77BDCF80915F03813201F780916303A4
:1046F00090916403892BD1F68091E800877F8093A5
:10470000E8000E949F258091610380932B010C9407
:104710009F1580915F03813249F68091E800877F81
:104720008093E8000E949F258091620380930A0392
:10473000089580915F03813A09F0B8CF8091E80035
:10474000877F8093E8008091E80080FFFCCF809114
:104750000A03C2CF84B7877F84BF0FB6F894A895A9
:1047600080916000886180936000109260000FBEAD
:1047700080E890E00FB6F894809361009093610018
:104780000FBE0E9436110E94EF250E944C26809198
:10479000E20084608093E20078940E94D5280E9411
:1047A000401181E291E00E94C31080915E03853048
:1047B00019F00E944A11F9CF0E943E1D80915C03BE
:1047C000882399F30E946F1D882379F30E9449245E
:1047D000ECCF0C94EB23292F33272330310519F12B
:1047E00068F42130310509F44AC02230310509F45A
:1047F0004BC090E080E030E020E028C0213231055D
:1048000079F122323105A9F780E490E021E335E027
:1048100061157105D9F08CEB90E025E734E061304B
:104820007105A1F0E6CF99278130910599F00097A5
:1048300041F08230910589F00397D9F6E2EFF3E079
:1048400002C0E4E2F4E0849190E09F01FA01318338
:1048500020830895ECE0F4E0F6CFE8EFF3E0F3CF47
:1048600089E090E02AE334E06115710579F389E08D
:1048700090E023E534E06130710541F3BACF82E185
:1048800090E023E634E0E2CF8BE390E028E234E0EE
:10489000DDCF80E189BD82E189BD09B400FEFDCF95
:1048A0008091D8008F7D8093D8008091E000826055
:1048B0008093E0008091E00081FDFCCF0895AF92ED
:1048C000BF92CF92DF92FF920F931F93CF93DF930C
:1048D0006C01EB018A010E94BE25F82E811123C0D4
:1048E0000115110539F0F80180819181C81BD90BA0
:1048F000C80ED91EB12CA12C2097A9F08091E800F8
:1049000085FD22C08091E8008E778093E800011534
:104910001105A1F0F80180819181A80EB91EB18224
:10492000A08285E0F82E8F2DDF91CF911F910F91FE
:10493000FF90DF90CF90BF90AF9008950E94BE256A
:104940008823D1F2F82EEFCFF60181916F01809389
:10495000F1002197FFEFAF1ABF0ACECFFC01809183
:1049600065039091660386179707A0F0611571059E
:1049700029F49091E8009E779093E80090E061150B
:10498000710551F4911108C08091E80082FF34C094
:1049900080E00895BC01F2CF80915E038823C1F1CD
:1049A0008530C1F18091E80083FD30C08091E8003E
:1049B00082FDEACF8091E80080FFE1CF8091F30093
:1049C0002091F200382F6115710519F0283031055A
:1049D00058F091E02830310509F090E02091E8008E
:1049E0002E772093E800CBCF81918093F100615026
:1049F00071092F5F3F4FE7CF80915E03882341F01D
:104A0000853041F08091E80083FFBECF81E00895BA
:104A100082E0089583E00895FC0180916503909100
:104A2000660386179707A0F06115710529F4809138
:104A3000E8008E778093E80090E06115710551F4ED
:104A4000911108C08091E80082FF35C080E0089590
:104A5000BC01F2CF80915E038823C9F18530C9F192
:104A60008091E80083FD31C08091E80082FDEACFAB
:104A70008091E80080FFE1CF8091F3002091F20067
:104A8000382F6115710519F02830310558F091E083
:104A90002830310509F090E08091E8008E7780930E
:104AA000E800CBCF84918093F10031966150710979
:104AB0002F5F3F4FE6CF80915E03882341F0853022
:104AC00041F08091E80083FFBDCF81E0089582E04E
:104AD000089583E00895982F973028F08F70809381
:104AE000E90081E008959093E900242F762F50E0AB
:104AF000981731F07091EC002091ED005091F0008A
:104B000021FD02C09F5FE8CF3091EB003E7F3093E4
:104B1000EB003091ED003D7F3093ED003091EB00E4
:104B200031603093EB007093EC002093ED005093D4
:104B3000F0002091EE0027FDE5CF80E00895809100
:104B40005F0387FF13C08091E80082FF06C0809159
:104B5000E8008B778093E80004C080915E038111A8
:104B6000F2CF089580915E038823D9F38091E80005
:104B700080FFF8CF8091E8008E77ECCF2091E400A1
:104B80003091E50095E6A9012091EC00822F81701B
:104B900020FF06C08091E80080FF06C080E00895F5
:104BA0002091E80022FD1AC080915E03882389F0DD
:104BB000853089F08091EB0085FD0FC02091E400E5
:104BC0003091E50042175307F9F29150E1F684E085
:104BD000089582E0089583E0089581E008950E9499
:104BE0005D260E946526E0EEF0E080818160808392
:104BF000E8EDF0E080818F77808319BCA7EDB0E00D
:104C00008C918E7F8C9380818F7E808310925D0348
:104C100008950F931F93CF93DF930E945D260E9408
:104C20006526C8EDD0E088818F7788838881806889
:104C3000888388818F7D888319BC10925E031092CF
:104C40005A0310925C0310925B0300EE10E0F8012F
:104C500080818B7F808388818160888342E060E0EF
:104C600080E00E946B25E1EEF0E080818E7F808302
:104C7000E2EEF0E0808181608083808188608083C3
:104C8000F80180818E7F8083888180618883DF91B5
:104C9000CF911F910F910895E8EDF0E080818F7E14
:104CA0008083E7EDF0E080818160808384E082BFD3
:104CB00081E080935D030C940926E8EDF0E08081AB
:104CC0008E7F80831092E20008951092DA00109295
:104CD000E10008951F920F920FB60F9211242F93A7
:104CE0003F934F935F936F937F938F939F93AF9374
:104CF000BF93EF93FF938091E10082FF0BC08091FF
:104D0000E20082FF07C08091E1008B7F8093E10089
:104D10000E94D4288091DA0080FF19C08091D800C9
:104D200080FF15C08091DA008E7F8093DA00809139
:104D3000D90080FF96C080E189BD82E189BD09B4B8
:104D400000FEFDCF81E080935E030E94D42280911B
:104D5000E10080FF19C08091E20080FF15C08091C2
:104D6000E2008E7F8093E2008091E2008061809378
:104D7000E2008091D80080628093D80019BC85E061
:104D800080935E030E94E6228091E10084FF2BC0A5
:104D90008091E20084FF27C080E189BD82E189BD66
:104DA00089B5982F917080FFFBCF8091D8008F7DBF
:104DB0008093D8008091E1008F7E8093E100809104
:104DC000E2008F7E8093E2008091E2008160809318
:104DD000E20080915A03882309F449C084E080935B
:104DE0005E030E94E7228091E10083FF29C0809149
:104DF000E20083FF25C08091E100877F8093E1007E
:104E000082E080935E0310925A038091E1008E7FCE
:104E10008093E1008091E2008E7F8093E200809198
:104E2000E20080618093E20042E060E080E00E9466
:104E30006B258091F00088608093F0000E94E5224D
:104E4000FF91EF91BF91AF919F918F917F916F9162
:104E50005F914F913F912F910F900FBE0F901F9038
:104E6000189519BC10925E030E94E22270CF8091C7
:104E7000E30087FD93E090935E03B3CF1F920F9200
:104E80000FB60F9211242F933F934F935F936F931D
:104E90007F938F939F93AF93BF93CF93DF93EF93C2
:104EA000FF93D091E900DF708091EC00C82FC170B2
:104EB00080FDC0E81092E9008091F000877F809328
:104EC000F00078940E9482271092E9008091F0000F
:104ED00088608093F000CD2BCF70C093E900FF91E4
:104EE000EF91DF91CF91BF91AF919F918F917F9182
:104EF0006F915F914F913F912F910F900FBE0F9047
:104F00001F9018951F93CF93DF93CDB7DEB7AA9765
:104F10000FB6F894DEBF0FBECDBF8FE593E02091B2
:104F2000F100FC012193CF01F3E087369F07B9F729
:104F30000E94F3228091E80083FF1EC180915F03ED
:104F4000909160039A3008F017C1E92FF0E0EF5715
:104F5000F54D0C944629803899F0823809F00CC13F
:104F6000809163038F70873008F006C18093E90059
:104F70008091EB0085FB882780F91092E90006C03C
:104F800080915B0390915C03911182609091E800A5
:104F9000977F9093E8008093F1001092F100809148
:104FA000E8008E77E5C0882309F4D3C0823009F089
:104FB000E3C0809161038111D6C0809163038F703B
:104FC0002FEF280F263008F0D7C08093E9002091FA
:104FD000EB0020FFC8C0933031F48091EB00806279
:104FE0008093EB00C0C09091EB0090619093EB0038
:104FF00021E030E001C0220F8A95EAF72093EA0011
:105000001092EA008091EB008860EACF8111B4C071
:10501000109161031F778091E3008078812B80934A
:10502000E3008091E800877F8093E8000E949F253D
:105030008091E80080FFFCCF8091E300806880933E
:10504000E30082E0111183E080935E0395C08058F5
:10505000823008F091C080916103909162038C3D91
:1050600023E09207A1F583E08A838AE289834FB720
:10507000F894DE01139620E03EE051E2E32FF0E0E9
:1050800050935700E49120FF03C0E295EF703F5F1B
:10509000EF708E2F90E0EA30C0F0C7968D939D930D
:1050A0002F5F243159F74FBF8091E800877F8093AD
:1050B000E8006AE270E0CE0101960E94AE24809181
:1050C000E8008B778093E80057C0C096E7CF6091E7
:1050D000630370916403AE014F5F5F4F0E94E92349
:1050E000BC01892B09F448C09091E800977F909308
:1050F000E80089819A810E940C25E1CF8038E1F592
:105100008091E800877F8093E80080915A03809324
:10511000F10045CF811130C090916103923060F56C
:105120008091E800877F8093E80090935A030E9463
:105130009F2580915A03882311F084E005C0809157
:10514000E30087FDFACF81E080935E030E94E922AD
:1051500013C080916103813079F481E0933009F0CC
:1051600080E080935C031092E9008091E800877FE3
:105170008093E8000E949F258091E80083FF0AC089
:105180008091E800877F8093E8008091EB00806247
:105190008093EB00AA960FB6F894DEBF0FBECDBF8A
:1051A000DF91CF911F9108950895CF9380915E0371
:1051B0008823A1F0C091E900CF709091EC00892F75
:1051C000817090FD80E8C82B1092E9008091E80082
:1051D00083FD0E948227CF70C093E900CF9108958C
:1051E000991B79E004C0991F961708F0961B881F39
:1051F0007A95C9F780950895AA1BBB1B51E107C09A
:10520000AA1FBB1FA617B70710F0A61BB70B881F56
:10521000991F5A95A9F780959095BC01CD010895E5
:1052200097FB072E16F4009407D077FD09D00E9453
:10523000FC2807FC05D03EF4909581959F4F08957A
:10524000709561957F4F0895A1E21A2EAA1BBB1B92
:10525000FD010DC0AA1FBB1FEE1FFF1FA217B30742
:10526000E407F50720F0A21BB30BE40BF50B661F58
:10527000771F881F991F1A9469F76095709580951C
:1052800090959B01AC01BD01CF010895EE0FFF1F6A
:105290000590F491E02D09940E945429332312F4CF
:1052A0008A1B9B0B0C946529A29FB001B39FC00180
:1052B000A39F700D811D1124911DB29F700D811D42
:1052C0001124911D08950E945429B7FF0895821B4F
:1052D000930B08950E945429A59F900DB49F900DA3
:1052E000A49F800D911D11240895B7FF0C946A2985
:1052F0000E946A29821B930B08958F929F92AF920E
:10530000BF92CF92DF92EF92FF92CF93DF93EC01A7
:10531000688179818A819B8161157105810591057B
:1053200021F464E279ED8BE597E02DE133EF41E084
:1053300050E00E942E2A49015A019B01AC01A7EAC4
:10534000B1E40E946A296B017C01ACEEB4EFA501C7
:1053500094010E947829DC01CB018C0D9D1DAE1DAE
:10536000BF1DB7FF03C00197A109B0488883998387
:10537000AA83BB839F77DF91CF91FF90EF90DF905F
:10538000CF90BF90AF909F908F9008950E947D29FD
:10539000089580E091E00E947D290895B0E0A0E0AA
:1053A0008093000190930101A0930201B093030147
:1053B0000895FC014150504030F001900616D1F79D
:1053C0003197CF010895882799270895F999FECF3D
:1053D00092BD81BDF89A992780B50895A6E1B0E005
:1053E00044E050E00C94202AA8E1B0E042E050E014
:1053F0000C94202A262FF999FECF92BD81BDF89AF0
:10540000019700B4021639F01FBA20BD0FB6F89408
:10541000FA9AF99A0FBE08950396272F0E94FB2946
:105420000E94FA29252F0E94FB29242F0C94FB2986
:105430000196272F0E94FB290C94FA29DC01CB014D
:10544000FC01F999FECF06C0F2BDE1BDF89A319694
:1054500000B40D9241505040B8F70895052E97FBC7
:105460001EF400940E94452A57FD07D00E9424296B
:1054700007FC03D04EF40C94452A50954095309586
:1054800021953F4F4F4F5F4F0895909580957095B0
:1054900061957F4F8F4F9F4F0895F894FFCF130E64
:1054A0001B0E220E270E2C0E310E360E3B0E400E1A
:1054B000450E4A0E4F0E530E580E5B0E5E0E610ED9
:1054C000640E660E690E68136813C013C0131214BD
:1054D0002E14951395133914C514D414D4143015FF
:1054E000951395133915AE15AE15B715B715B91532
:1054F000B715B715B715AE15AE15BE15B715B71557
:10550000BE15AB27D327BC28D327BC2806282728BD
:06551000BC287E288A2859
:1055160001000000010102001000101001191A1B01
:105526001C1D1E1F202122B7022808641E140A32E1
:105536001E3522942273226F226B2201E200E900BB
:10554600EA00B500B600B700CD008301CC008A01A1
:105556009201940121022302240225022602270237
:105566002A02B300B4006F00700081828394333244
:105576003130F7F6F5F4F0F196973435919293952C
:105586009000010202020206060609090909090934
:105596000F0F0F0F0F0F15151518191919191919BE
:1055A600191919192324252525252525E200E900A1
:1055B600EA00B500B600B700CD008301CC008A0131
:1055C60092019401210223022402250226022702C7
:0E55D6002A02B300B4006F00700081828300CF
:00000001FF
